{
  "_format": "hh-sol-artifact-1",
  "contractName": "ODINNFT",
  "sourceName": "contracts/OdinNFT.sol",
  "abi": [
    {
      "inputs": [],
      "stateMutability": "nonpayable",
      "type": "constructor"
    },
    {
      "anonymous": false,
      "inputs": [
        {
          "indexed": true,
          "internalType": "address",
          "name": "owner",
          "type": "address"
        },
        {
          "indexed": true,
          "internalType": "address",
          "name": "approved",
          "type": "address"
        },
        {
          "indexed": true,
          "internalType": "uint256",
          "name": "tokenId",
          "type": "uint256"
        }
      ],
      "name": "Approval",
      "type": "event"
    },
    {
      "anonymous": false,
      "inputs": [
        {
          "indexed": true,
          "internalType": "address",
          "name": "owner",
          "type": "address"
        },
        {
          "indexed": true,
          "internalType": "address",
          "name": "operator",
          "type": "address"
        },
        {
          "indexed": false,
          "internalType": "bool",
          "name": "approved",
          "type": "bool"
        }
      ],
      "name": "ApprovalForAll",
      "type": "event"
    },
    {
      "anonymous": false,
      "inputs": [
        {
          "indexed": true,
          "internalType": "address",
          "name": "previousOwner",
          "type": "address"
        },
        {
          "indexed": true,
          "internalType": "address",
          "name": "newOwner",
          "type": "address"
        }
      ],
      "name": "OwnershipTransferred",
      "type": "event"
    },
    {
      "anonymous": false,
      "inputs": [
        {
          "indexed": true,
          "internalType": "address",
          "name": "from",
          "type": "address"
        },
        {
          "indexed": true,
          "internalType": "address",
          "name": "to",
          "type": "address"
        },
        {
          "indexed": true,
          "internalType": "uint256",
          "name": "tokenId",
          "type": "uint256"
        }
      ],
      "name": "Transfer",
      "type": "event"
    },
    {
      "inputs": [],
      "name": "MINT_PRICE",
      "outputs": [
        {
          "internalType": "uint256",
          "name": "",
          "type": "uint256"
        }
      ],
      "stateMutability": "view",
      "type": "function"
    },
    {
      "inputs": [
        {
          "internalType": "address",
          "name": "to",
          "type": "address"
        },
        {
          "internalType": "uint256",
          "name": "tokenId",
          "type": "uint256"
        }
      ],
      "name": "approve",
      "outputs": [],
      "stateMutability": "nonpayable",
      "type": "function"
    },
    {
      "inputs": [
        {
          "internalType": "address",
          "name": "_owner",
          "type": "address"
        }
      ],
      "name": "balanceOf",
      "outputs": [
        {
          "internalType": "uint256",
          "name": "",
          "type": "uint256"
        }
      ],
      "stateMutability": "view",
      "type": "function"
    },
    {
      "inputs": [
        {
          "internalType": "uint256",
          "name": "tokenId",
          "type": "uint256"
        }
      ],
      "name": "burn",
      "outputs": [],
      "stateMutability": "nonpayable",
      "type": "function"
    },
    {
      "inputs": [
        {
          "internalType": "address",
          "name": "_account",
          "type": "address"
        }
      ],
      "name": "checkAccountLevel",
      "outputs": [
        {
          "internalType": "uint256",
          "name": "",
          "type": "uint256"
        }
      ],
      "stateMutability": "view",
      "type": "function"
    },
    {
      "inputs": [
        {
          "internalType": "address",
          "name": "_account",
          "type": "address"
        }
      ],
      "name": "checkAccountLevels",
      "outputs": [
        {
          "internalType": "uint256[]",
          "name": "",
          "type": "uint256[]"
        }
      ],
      "stateMutability": "view",
      "type": "function"
    },
    {
      "inputs": [
        {
          "internalType": "uint256",
          "name": "tokenId",
          "type": "uint256"
        }
      ],
      "name": "getApproved",
      "outputs": [
        {
          "internalType": "address",
          "name": "",
          "type": "address"
        }
      ],
      "stateMutability": "view",
      "type": "function"
    },
    {
      "inputs": [
        {
          "internalType": "uint256",
          "name": "_id",
          "type": "uint256"
        }
      ],
      "name": "getTokenLevel",
      "outputs": [
        {
          "internalType": "uint256",
          "name": "",
          "type": "uint256"
        }
      ],
      "stateMutability": "view",
      "type": "function"
    },
    {
      "inputs": [
        {
          "internalType": "address",
          "name": "_owner",
          "type": "address"
        }
      ],
      "name": "getTokensOfOwner",
      "outputs": [
        {
          "internalType": "uint256[]",
          "name": "",
          "type": "uint256[]"
        }
      ],
      "stateMutability": "view",
      "type": "function"
    },
    {
      "inputs": [
        {
          "internalType": "address",
          "name": "owner",
          "type": "address"
        },
        {
          "internalType": "address",
          "name": "operator",
          "type": "address"
        }
      ],
      "name": "isApprovedForAll",
      "outputs": [
        {
          "internalType": "bool",
          "name": "",
          "type": "bool"
        }
      ],
      "stateMutability": "view",
      "type": "function"
    },
    {
      "inputs": [
        {
          "internalType": "uint256",
          "name": "_level",
          "type": "uint256"
        },
        {
          "internalType": "address",
          "name": "_to",
          "type": "address"
        }
      ],
      "name": "mint",
      "outputs": [
        {
          "internalType": "uint256",
          "name": "",
          "type": "uint256"
        }
      ],
      "stateMutability": "nonpayable",
      "type": "function"
    },
    {
      "inputs": [],
      "name": "name",
      "outputs": [
        {
          "internalType": "string",
          "name": "",
          "type": "string"
        }
      ],
      "stateMutability": "view",
      "type": "function"
    },
    {
      "inputs": [],
      "name": "owner",
      "outputs": [
        {
          "internalType": "address",
          "name": "",
          "type": "address"
        }
      ],
      "stateMutability": "view",
      "type": "function"
    },
    {
      "inputs": [
        {
          "internalType": "uint256",
          "name": "_id",
          "type": "uint256"
        }
      ],
      "name": "ownerOf",
      "outputs": [
        {
          "internalType": "address",
          "name": "",
          "type": "address"
        }
      ],
      "stateMutability": "view",
      "type": "function"
    },
    {
      "inputs": [],
      "name": "renounceOwnership",
      "outputs": [],
      "stateMutability": "nonpayable",
      "type": "function"
    },
    {
      "inputs": [
        {
          "internalType": "address",
          "name": "from",
          "type": "address"
        },
        {
          "internalType": "address",
          "name": "to",
          "type": "address"
        },
        {
          "internalType": "uint256",
          "name": "tokenId",
          "type": "uint256"
        }
      ],
      "name": "safeTransferFrom",
      "outputs": [],
      "stateMutability": "nonpayable",
      "type": "function"
    },
    {
      "inputs": [
        {
          "internalType": "address",
          "name": "from",
          "type": "address"
        },
        {
          "internalType": "address",
          "name": "to",
          "type": "address"
        },
        {
          "internalType": "uint256",
          "name": "tokenId",
          "type": "uint256"
        },
        {
          "internalType": "bytes",
          "name": "_data",
          "type": "bytes"
        }
      ],
      "name": "safeTransferFrom",
      "outputs": [],
      "stateMutability": "nonpayable",
      "type": "function"
    },
    {
      "inputs": [
        {
          "internalType": "address",
          "name": "operator",
          "type": "address"
        },
        {
          "internalType": "bool",
          "name": "approved",
          "type": "bool"
        }
      ],
      "name": "setApprovalForAll",
      "outputs": [],
      "stateMutability": "nonpayable",
      "type": "function"
    },
    {
      "inputs": [
        {
          "internalType": "string",
          "name": "_baseTokenURI",
          "type": "string"
        }
      ],
      "name": "setBaseTokenURI",
      "outputs": [],
      "stateMutability": "nonpayable",
      "type": "function"
    },
    {
      "inputs": [
        {
          "internalType": "uint256",
          "name": "_tokenId",
          "type": "uint256"
        },
        {
          "internalType": "string",
          "name": "_tokenURI",
          "type": "string"
        }
      ],
      "name": "setTokenURI",
      "outputs": [],
      "stateMutability": "nonpayable",
      "type": "function"
    },
    {
      "inputs": [
        {
          "internalType": "bytes4",
          "name": "interfaceId",
          "type": "bytes4"
        }
      ],
      "name": "supportsInterface",
      "outputs": [
        {
          "internalType": "bool",
          "name": "",
          "type": "bool"
        }
      ],
      "stateMutability": "view",
      "type": "function"
    },
    {
      "inputs": [],
      "name": "symbol",
      "outputs": [
        {
          "internalType": "string",
          "name": "",
          "type": "string"
        }
      ],
      "stateMutability": "view",
      "type": "function"
    },
    {
      "inputs": [
        {
          "internalType": "uint256",
          "name": "index",
          "type": "uint256"
        }
      ],
      "name": "tokenByIndex",
      "outputs": [
        {
          "internalType": "uint256",
          "name": "",
          "type": "uint256"
        }
      ],
      "stateMutability": "view",
      "type": "function"
    },
    {
      "inputs": [
        {
          "internalType": "address",
          "name": "owner",
          "type": "address"
        },
        {
          "internalType": "uint256",
          "name": "index",
          "type": "uint256"
        }
      ],
      "name": "tokenOfOwnerByIndex",
      "outputs": [
        {
          "internalType": "uint256",
          "name": "",
          "type": "uint256"
        }
      ],
      "stateMutability": "view",
      "type": "function"
    },
    {
      "inputs": [
        {
          "internalType": "uint256",
          "name": "tokenId",
          "type": "uint256"
        }
      ],
      "name": "tokenURI",
      "outputs": [
        {
          "internalType": "string",
          "name": "",
          "type": "string"
        }
      ],
      "stateMutability": "view",
      "type": "function"
    },
    {
      "inputs": [],
      "name": "totalSupply",
      "outputs": [
        {
          "internalType": "uint256",
          "name": "",
          "type": "uint256"
        }
      ],
      "stateMutability": "view",
      "type": "function"
    },
    {
      "inputs": [
        {
          "internalType": "address",
          "name": "from",
          "type": "address"
        },
        {
          "internalType": "address",
          "name": "to",
          "type": "address"
        },
        {
          "internalType": "uint256",
          "name": "tokenId",
          "type": "uint256"
        }
      ],
      "name": "transferFrom",
      "outputs": [],
      "stateMutability": "nonpayable",
      "type": "function"
    },
    {
      "inputs": [
        {
          "internalType": "address",
          "name": "newOwner",
          "type": "address"
        }
      ],
      "name": "transferOwnership",
      "outputs": [],
      "stateMutability": "nonpayable",
      "type": "function"
    }
  ],
  "bytecode": "0x60806040526000600d553480156200001657600080fd5b50604080518082018252600781526613d91a5b93919560ca1b60208083019182528351808501909452600684526513d11253939560d21b9084015281519192916200006491600091620000f3565b5080516200007a906001906020840190620000f3565b50505062000097620000916200009d60201b60201c565b620000a1565b620001d6565b3390565b600b80546001600160a01b038381166001600160a01b0319831681179093556040519116919082907f8be0079c531659141344cd1fd0a4f28419497f9722a3daafe3b4186f6b6457e090600090a35050565b828054620001019062000199565b90600052602060002090601f01602090048101928262000125576000855562000170565b82601f106200014057805160ff191683800117855562000170565b8280016001018555821562000170579182015b828111156200017057825182559160200191906001019062000153565b506200017e92915062000182565b5090565b5b808211156200017e576000815560010162000183565b600181811c90821680620001ae57607f821691505b60208210811415620001d057634e487b7160e01b600052602260045260246000fd5b50919050565b61250080620001e66000396000f3fe608060405234801561001057600080fd5b50600436106101c45760003560e01c8063664315e8116100f9578063b88d4fde11610097578063d011645c11610071578063d011645c146103b5578063df611083146103c8578063e985e9c5146103db578063f2fde38b1461041757600080fd5b8063b88d4fde14610381578063c002d23d14610394578063c87b56dd146103a257600080fd5b80638da5cb5b116100d35780638da5cb5b1461034257806394bf804d1461035357806395d89b4114610366578063a22cb4651461036e57600080fd5b8063664315e81461031457806370a0823114610327578063715018a61461033a57600080fd5b80632f745c591161016657806342966c681161014057806342966c68146102bb5780634f6ccce7146102ce5780635de6dc55146102e15780636352211e1461030157600080fd5b80632f745c591461028257806330176e131461029557806342842e0e146102a857600080fd5b8063095ea7b3116101a2578063095ea7b314610231578063162094c41461024657806318160ddd1461025957806323b872dd1461026f57600080fd5b806301ffc9a7146101c957806306fdde03146101f1578063081812fc14610206575b600080fd5b6101dc6101d73660046120b4565b61042a565b60405190151581526020015b60405180910390f35b6101f961043b565b6040516101e89190612282565b610219610214366004612123565b6104cd565b6040516001600160a01b0390911681526020016101e8565b61024461023f36600461208a565b610567565b005b61024461025436600461215f565b61067d565b610261610705565b6040519081526020016101e8565b61024461027d366004611f96565b610715565b61026161029036600461208a565b610747565b6102446102a33660046120ee565b6107dd565b6102446102b6366004611f96565b61081e565b6102446102c9366004612123565b610839565b6102616102dc366004612123565b6108b3565b6102f46102ef366004611f48565b610946565b6040516101e8919061223e565b61021961030f366004612123565b6109e8565b6102f4610322366004611f48565b6109f3565b610261610335366004611f48565b610ae5565b610244610af0565b600b546001600160a01b0316610219565b61026161036136600461213c565b610b26565b6101f9610b60565b61024461037c36600461204e565b610b6f565b61024461038f366004611fd2565b610b7a565b6102616611c37937e0800081565b6101f96103b0366004612123565b610bb2565b6102616103c3366004612123565b610bbd565b6102616103d6366004611f48565b610c16565b6101dc6103e9366004611f63565b6001600160a01b03918216600090815260056020908152604080832093909416825291909152205460ff1690565b610244610425366004611f48565b610e0d565b600061043582610ea5565b92915050565b60606000805461044a906123dc565b80601f0160208091040260200160405190810160405280929190818152602001828054610476906123dc565b80156104c35780601f10610498576101008083540402835291602001916104c3565b820191906000526020600020905b8154815290600101906020018083116104a657829003601f168201915b5050505050905090565b6000818152600260205260408120546001600160a01b031661054b5760405162461bcd60e51b815260206004820152602c60248201527f4552433732313a20617070726f76656420717565727920666f72206e6f6e657860448201526b34b9ba32b73a103a37b5b2b760a11b60648201526084015b60405180910390fd5b506000908152600460205260409020546001600160a01b031690565b600061057282610eca565b9050806001600160a01b0316836001600160a01b031614156105e05760405162461bcd60e51b815260206004820152602160248201527f4552433732313a20617070726f76616c20746f2063757272656e74206f776e656044820152603960f91b6064820152608401610542565b336001600160a01b03821614806105fc57506105fc81336103e9565b61066e5760405162461bcd60e51b815260206004820152603860248201527f4552433732313a20617070726f76652063616c6c6572206973206e6f74206f7760448201527f6e6572206e6f7220617070726f76656420666f7220616c6c00000000000000006064820152608401610542565b6106788383610f41565b505050565b610686826109e8565b6001600160a01b0316336001600160a01b0316146106e65760405162461bcd60e51b815260206004820152601760248201527f556e61626c6520746f2073657420746f6b656e205552490000000000000000006044820152606401610542565b6000828152600f60209081526040909120825161067892840190611dc7565b600061071060085490565b905090565b610720335b82610faf565b61073c5760405162461bcd60e51b81526004016105429061231c565b6106788383836110a6565b60006107528361124d565b82106107b45760405162461bcd60e51b815260206004820152602b60248201527f455243373231456e756d657261626c653a206f776e657220696e646578206f7560448201526a74206f6620626f756e647360a81b6064820152608401610542565b506001600160a01b03919091166000908152600660209081526040808320938352929052205490565b600b546001600160a01b031633146108075760405162461bcd60e51b8152600401610542906122e7565b805161081a90600c906020840190611dc7565b5050565b61067883838360405180602001604052806000815250610b7a565b6108423361071a565b6108a75760405162461bcd60e51b815260206004820152603060248201527f4552433732314275726e61626c653a2063616c6c6572206973206e6f74206f7760448201526f1b995c881b9bdc88185c1c1c9bdd995960821b6064820152608401610542565b6108b0816112d4565b50565b60006108be60085490565b82106109215760405162461bcd60e51b815260206004820152602c60248201527f455243373231456e756d657261626c653a20676c6f62616c20696e646578206f60448201526b7574206f6620626f756e647360a01b6064820152608401610542565b6008828154811061093457610934612488565b90600052602060002001549050919050565b6060600061095383610ae5565b905060008167ffffffffffffffff8111156109705761097061249e565b604051908082528060200260200182016040528015610999578160200160208202803683370190505b50905060005b828110156109e0576109b18582610747565b8282815181106109c3576109c3612488565b6020908102919091010152806109d881612417565b91505061099f565b509392505050565b600061043582610eca565b60606000610a0083610ae5565b11610a3a5760405162461bcd60e51b815260206004820152600a6024820152694e6f2062616c616e636560b01b6044820152606401610542565b6000610a4583610ae5565b905060008167ffffffffffffffff811115610a6257610a6261249e565b604051908082528060200260200182016040528015610a8b578160200160208202803683370190505b50905060005b828110156109e057600e6000610aa78784610747565b815260200190815260200160002054828281518110610ac857610ac8612488565b602090810291909101015280610add81612417565b915050610a91565b60006104358261124d565b600b546001600160a01b03163314610b1a5760405162461bcd60e51b8152600401610542906122e7565b610b2460006112dd565b565b600d8054600091819083610b3983612417565b90915550506000818152600e60205260409020849055610b59838261132f565b9392505050565b60606001805461044a906123dc565b61081a338383611349565b610b843383610faf565b610ba05760405162461bcd60e51b81526004016105429061231c565b610bac84848484611418565b50505050565b60606104358261144b565b6000600d548210610c035760405162461bcd60e51b815260206004820152601060248201526f4e6f6e20657869737420746f6b656e2160801b6044820152606401610542565b506000908152600e602052604090205490565b60008080610c2384610946565b90506000806000806000805b8651811015610dd05787600e6000898481518110610c4f57610c4f612488565b60200260200101518152602001908152602001600020541115610c9c57600e6000888381518110610c8257610c82612488565b602002602001015181526020019081526020016000205497505b600e6000888381518110610cb257610cb2612488565b602002602001015181526020019081526020016000205460011415610cd657600195505b600e6000888381518110610cec57610cec612488565b602002602001015181526020019081526020016000205460021415610d1057600194505b600e6000888381518110610d2657610d26612488565b602002602001015181526020019081526020016000205460031415610d4a57600193505b600e6000888381518110610d6057610d60612488565b602002602001015181526020019081526020016000205460041415610d8457600192505b600e6000888381518110610d9a57610d9a612488565b602002602001015181526020019081526020016000205460051415610dbe57600191505b80610dc881612417565b915050610c2f565b50848015610ddb5750835b8015610de45750825b8015610ded5750815b8015610df65750805b15610e0057600696505b5094979650505050505050565b600b546001600160a01b03163314610e375760405162461bcd60e51b8152600401610542906122e7565b6001600160a01b038116610e9c5760405162461bcd60e51b815260206004820152602660248201527f4f776e61626c653a206e6577206f776e657220697320746865207a65726f206160448201526564647265737360d01b6064820152608401610542565b6108b0816112dd565b60006001600160e01b0319821663780e9d6360e01b14806104355750610435826115ca565b6000818152600260205260408120546001600160a01b0316806104355760405162461bcd60e51b815260206004820152602960248201527f4552433732313a206f776e657220717565727920666f72206e6f6e657869737460448201526832b73a103a37b5b2b760b91b6064820152608401610542565b600081815260046020526040902080546001600160a01b0319166001600160a01b0384169081179091558190610f7682610eca565b6001600160a01b03167f8c5be1e5ebec7d5bd14f71427d1e84f3dd0314c0f7b2291e5b200ac8c7c3b92560405160405180910390a45050565b6000818152600260205260408120546001600160a01b03166110285760405162461bcd60e51b815260206004820152602c60248201527f4552433732313a206f70657261746f7220717565727920666f72206e6f6e657860448201526b34b9ba32b73a103a37b5b2b760a11b6064820152608401610542565b600061103383610eca565b9050806001600160a01b0316846001600160a01b0316148061106e5750836001600160a01b0316611063846104cd565b6001600160a01b0316145b8061109e57506001600160a01b0380821660009081526005602090815260408083209388168352929052205460ff165b949350505050565b826001600160a01b03166110b982610eca565b6001600160a01b03161461111d5760405162461bcd60e51b815260206004820152602560248201527f4552433732313a207472616e736665722066726f6d20696e636f72726563742060448201526437bbb732b960d91b6064820152608401610542565b6001600160a01b03821661117f5760405162461bcd60e51b8152602060048201526024808201527f4552433732313a207472616e7366657220746f20746865207a65726f206164646044820152637265737360e01b6064820152608401610542565b61118a83838361161a565b611195600082610f41565b6001600160a01b03831660009081526003602052604081208054600192906111be908490612399565b90915550506001600160a01b03821660009081526003602052604081208054600192906111ec90849061236d565b909155505060008181526002602052604080822080546001600160a01b0319166001600160a01b0386811691821790925591518493918716917fddf252ad1be2c89b69c2b068fc378daa952ba7f163c4a11628f55a4df523b3ef91a4505050565b60006001600160a01b0382166112b85760405162461bcd60e51b815260206004820152602a60248201527f4552433732313a2062616c616e636520717565727920666f7220746865207a65604482015269726f206164647265737360b01b6064820152608401610542565b506001600160a01b031660009081526003602052604090205490565b6108b081611625565b600b80546001600160a01b038381166001600160a01b0319831681179093556040519116919082907f8be0079c531659141344cd1fd0a4f28419497f9722a3daafe3b4186f6b6457e090600090a35050565b61081a828260405180602001604052806000815250611665565b816001600160a01b0316836001600160a01b031614156113ab5760405162461bcd60e51b815260206004820152601960248201527f4552433732313a20617070726f766520746f2063616c6c6572000000000000006044820152606401610542565b6001600160a01b03838116600081815260056020908152604080832094871680845294825291829020805460ff191686151590811790915591519182527f17307eab39ab6107e8899845ad3d59bd9653f200f220920489ca2b5937696c31910160405180910390a3505050565b6114238484846110a6565b61142f84848484611698565b610bac5760405162461bcd60e51b815260040161054290612295565b6000818152600260205260409020546060906001600160a01b03166114cc5760405162461bcd60e51b815260206004820152603160248201527f45524337323155524953746f726167653a2055524920717565727920666f72206044820152703737b732bc34b9ba32b73a103a37b5b2b760791b6064820152608401610542565b6000828152600a6020526040812080546114e5906123dc565b80601f0160208091040260200160405190810160405280929190818152602001828054611511906123dc565b801561155e5780601f106115335761010080835404028352916020019161155e565b820191906000526020600020905b81548152906001019060200180831161154157829003601f168201915b50505050509050600061157c60408051602081019091526000815290565b905080516000141561158f575092915050565b8151156115c15780826040516020016115a99291906121d2565b60405160208183030381529060405292505050919050565b61109e846117a5565b60006001600160e01b031982166380ac58cd60e01b14806115fb57506001600160e01b03198216635b5e139f60e01b145b8061043557506301ffc9a760e01b6001600160e01b0319831614610435565b61067883838361188c565b61162e81611944565b6000818152600a602052604090208054611647906123dc565b1590506108b0576000818152600a602052604081206108b091611e4b565b61166f83836119eb565b61167c6000848484611698565b6106785760405162461bcd60e51b815260040161054290612295565b60006001600160a01b0384163b1561179a57604051630a85bd0160e11b81526001600160a01b0385169063150b7a02906116dc903390899088908890600401612201565b602060405180830381600087803b1580156116f657600080fd5b505af1925050508015611726575060408051601f3d908101601f19168201909252611723918101906120d1565b60015b611780573d808015611754576040519150601f19603f3d011682016040523d82523d6000602084013e611759565b606091505b5080516117785760405162461bcd60e51b815260040161054290612295565b805181602001fd5b6001600160e01b031916630a85bd0160e11b14905061109e565b506001949350505050565b6000818152600260205260409020546060906001600160a01b03166118245760405162461bcd60e51b815260206004820152602f60248201527f4552433732314d657461646174613a2055524920717565727920666f72206e6f60448201526e3732bc34b9ba32b73a103a37b5b2b760891b6064820152608401610542565b600061183b60408051602081019091526000815290565b9050600081511161185b5760405180602001604052806000815250610b59565b8061186584611b39565b6040516020016118769291906121d2565b6040516020818303038152906040529392505050565b6001600160a01b0383166118e7576118e281600880546000838152600960205260408120829055600182018355919091527ff3f7a9fe364faab93b216da50a3214154f22a0a2b415b23a84c8169e8b636ee30155565b61190a565b816001600160a01b0316836001600160a01b03161461190a5761190a8382611c37565b6001600160a01b0382166119215761067881611cd4565b826001600160a01b0316826001600160a01b031614610678576106788282611d83565b600061194f82610eca565b905061195d8160008461161a565b611968600083610f41565b6001600160a01b0381166000908152600360205260408120805460019290611991908490612399565b909155505060008281526002602052604080822080546001600160a01b0319169055518391906001600160a01b038416907fddf252ad1be2c89b69c2b068fc378daa952ba7f163c4a11628f55a4df523b3ef908390a45050565b6001600160a01b038216611a415760405162461bcd60e51b815260206004820181905260248201527f4552433732313a206d696e7420746f20746865207a65726f20616464726573736044820152606401610542565b6000818152600260205260409020546001600160a01b031615611aa65760405162461bcd60e51b815260206004820152601c60248201527f4552433732313a20746f6b656e20616c7265616479206d696e746564000000006044820152606401610542565b611ab26000838361161a565b6001600160a01b0382166000908152600360205260408120805460019290611adb90849061236d565b909155505060008181526002602052604080822080546001600160a01b0319166001600160a01b03861690811790915590518392907fddf252ad1be2c89b69c2b068fc378daa952ba7f163c4a11628f55a4df523b3ef908290a45050565b606081611b5d5750506040805180820190915260018152600360fc1b602082015290565b8160005b8115611b875780611b7181612417565b9150611b809050600a83612385565b9150611b61565b60008167ffffffffffffffff811115611ba257611ba261249e565b6040519080825280601f01601f191660200182016040528015611bcc576020820181803683370190505b5090505b841561109e57611be1600183612399565b9150611bee600a86612432565b611bf990603061236d565b60f81b818381518110611c0e57611c0e612488565b60200101906001600160f81b031916908160001a905350611c30600a86612385565b9450611bd0565b60006001611c448461124d565b611c4e9190612399565b600083815260076020526040902054909150808214611ca1576001600160a01b03841660009081526006602090815260408083208584528252808320548484528184208190558352600790915290208190555b5060009182526007602090815260408084208490556001600160a01b039094168352600681528383209183525290812055565b600854600090611ce690600190612399565b60008381526009602052604081205460088054939450909284908110611d0e57611d0e612488565b906000526020600020015490508060088381548110611d2f57611d2f612488565b6000918252602080832090910192909255828152600990915260408082208490558582528120556008805480611d6757611d67612472565b6001900381819060005260206000200160009055905550505050565b6000611d8e8361124d565b6001600160a01b039093166000908152600660209081526040808320868452825280832085905593825260079052919091209190915550565b828054611dd3906123dc565b90600052602060002090601f016020900481019282611df55760008555611e3b565b82601f10611e0e57805160ff1916838001178555611e3b565b82800160010185558215611e3b579182015b82811115611e3b578251825591602001919060010190611e20565b50611e47929150611e81565b5090565b508054611e57906123dc565b6000825580601f10611e67575050565b601f0160209004906000526020600020908101906108b091905b5b80821115611e475760008155600101611e82565b600067ffffffffffffffff80841115611eb157611eb161249e565b604051601f8501601f19908116603f01168101908282118183101715611ed957611ed961249e565b81604052809350858152868686011115611ef257600080fd5b858560208301376000602087830101525050509392505050565b80356001600160a01b0381168114611f2357600080fd5b919050565b600082601f830112611f3957600080fd5b610b5983833560208501611e96565b600060208284031215611f5a57600080fd5b610b5982611f0c565b60008060408385031215611f7657600080fd5b611f7f83611f0c565b9150611f8d60208401611f0c565b90509250929050565b600080600060608486031215611fab57600080fd5b611fb484611f0c565b9250611fc260208501611f0c565b9150604084013590509250925092565b60008060008060808587031215611fe857600080fd5b611ff185611f0c565b9350611fff60208601611f0c565b925060408501359150606085013567ffffffffffffffff81111561202257600080fd5b8501601f8101871361203357600080fd5b61204287823560208401611e96565b91505092959194509250565b6000806040838503121561206157600080fd5b61206a83611f0c565b91506020830135801515811461207f57600080fd5b809150509250929050565b6000806040838503121561209d57600080fd5b6120a683611f0c565b946020939093013593505050565b6000602082840312156120c657600080fd5b8135610b59816124b4565b6000602082840312156120e357600080fd5b8151610b59816124b4565b60006020828403121561210057600080fd5b813567ffffffffffffffff81111561211757600080fd5b61109e84828501611f28565b60006020828403121561213557600080fd5b5035919050565b6000806040838503121561214f57600080fd5b82359150611f8d60208401611f0c565b6000806040838503121561217257600080fd5b82359150602083013567ffffffffffffffff81111561219057600080fd5b61219c85828601611f28565b9150509250929050565b600081518084526121be8160208601602086016123b0565b601f01601f19169290920160200192915050565b600083516121e48184602088016123b0565b8351908301906121f88183602088016123b0565b01949350505050565b6001600160a01b0385811682528416602082015260408101839052608060608201819052600090612234908301846121a6565b9695505050505050565b6020808252825182820181905260009190848201906040850190845b818110156122765783518352928401929184019160010161225a565b50909695505050505050565b602081526000610b5960208301846121a6565b60208082526032908201527f4552433732313a207472616e7366657220746f206e6f6e20455243373231526560408201527131b2b4bb32b91034b6b83632b6b2b73a32b960711b606082015260800190565b6020808252818101527f4f776e61626c653a2063616c6c6572206973206e6f7420746865206f776e6572604082015260600190565b60208082526031908201527f4552433732313a207472616e736665722063616c6c6572206973206e6f74206f6040820152701ddb995c881b9bdc88185c1c1c9bdd9959607a1b606082015260800190565b6000821982111561238057612380612446565b500190565b6000826123945761239461245c565b500490565b6000828210156123ab576123ab612446565b500390565b60005b838110156123cb5781810151838201526020016123b3565b83811115610bac5750506000910152565b600181811c908216806123f057607f821691505b6020821081141561241157634e487b7160e01b600052602260045260246000fd5b50919050565b600060001982141561242b5761242b612446565b5060010190565b6000826124415761244161245c565b500690565b634e487b7160e01b600052601160045260246000fd5b634e487b7160e01b600052601260045260246000fd5b634e487b7160e01b600052603160045260246000fd5b634e487b7160e01b600052603260045260246000fd5b634e487b7160e01b600052604160045260246000fd5b6001600160e01b0319811681146108b057600080fdfea26469706673582212203b7fda4d965b4226f0b58f915de3c7780fc9bed89a26fad2ff8470cb4df4fea864736f6c63430008070033",
  "linkReferences": {},
  "deployedLinkReferences": {}
}