{
  "_format": "hh-sol-artifact-1",
  "contractName": "VRFV2RandomGeneration",
  "sourceName": "contracts/VRFV2RandomGeneration.sol",
  "abi": [
    {
      "inputs": [],
      "stateMutability": "nonpayable",
      "type": "constructor"
    },
    {
      "inputs": [
        {
          "internalType": "address",
          "name": "have",
          "type": "address"
        },
        {
          "internalType": "address",
          "name": "want",
          "type": "address"
        }
      ],
      "name": "OnlyCoordinatorCanFulfill",
      "type": "error"
    },
    {
      "inputs": [
        {
          "internalType": "address",
          "name": "consumerAddress",
          "type": "address"
        }
      ],
      "name": "addConsumer",
      "outputs": [],
      "stateMutability": "nonpayable",
      "type": "function"
    },
    {
      "inputs": [
        {
          "internalType": "address",
          "name": "receivingWallet",
          "type": "address"
        }
      ],
      "name": "cancelSubscription",
      "outputs": [],
      "stateMutability": "nonpayable",
      "type": "function"
    },
    {
      "inputs": [],
      "name": "getRandomWords",
      "outputs": [
        {
          "internalType": "uint256",
          "name": "",
          "type": "uint256"
        }
      ],
      "stateMutability": "view",
      "type": "function"
    },
    {
      "inputs": [
        {
          "internalType": "uint256",
          "name": "requestId",
          "type": "uint256"
        },
        {
          "internalType": "uint256[]",
          "name": "randomWords",
          "type": "uint256[]"
        }
      ],
      "name": "rawFulfillRandomWords",
      "outputs": [],
      "stateMutability": "nonpayable",
      "type": "function"
    },
    {
      "inputs": [
        {
          "internalType": "address",
          "name": "consumerAddress",
          "type": "address"
        }
      ],
      "name": "removeConsumer",
      "outputs": [],
      "stateMutability": "nonpayable",
      "type": "function"
    },
    {
      "inputs": [],
      "name": "requestRandomWords",
      "outputs": [],
      "stateMutability": "nonpayable",
      "type": "function"
    },
    {
      "inputs": [
        {
          "internalType": "uint256",
          "name": "",
          "type": "uint256"
        }
      ],
      "name": "s_randomWords",
      "outputs": [
        {
          "internalType": "uint256",
          "name": "",
          "type": "uint256"
        }
      ],
      "stateMutability": "view",
      "type": "function"
    },
    {
      "inputs": [],
      "name": "s_requestId",
      "outputs": [
        {
          "internalType": "uint256",
          "name": "",
          "type": "uint256"
        }
      ],
      "stateMutability": "view",
      "type": "function"
    },
    {
      "inputs": [],
      "name": "s_subscriptionId",
      "outputs": [
        {
          "internalType": "uint64",
          "name": "",
          "type": "uint64"
        }
      ],
      "stateMutability": "view",
      "type": "function"
    },
    {
      "inputs": [
        {
          "internalType": "address",
          "name": "_newAddress",
          "type": "address"
        }
      ],
      "name": "setOdinAddress",
      "outputs": [],
      "stateMutability": "nonpayable",
      "type": "function"
    },
    {
      "inputs": [
        {
          "internalType": "uint256",
          "name": "amount",
          "type": "uint256"
        }
      ],
      "name": "topUpSubscription",
      "outputs": [],
      "stateMutability": "nonpayable",
      "type": "function"
    }
  ],
  "bytecode": "0x60a0604052600280546001600160a01b0319908116736168499c0cffcacd319c818142124b7a15e857ab17909155600380549091167301be23585060835e02b77ef475b0cc51aa1e07091790557fd89b2bf150e3b9e13446986e571fb9cab24b13cea0a43ea20a6049a85cc807cc6004556005805466020003000186a06001600160501b031990911617905534801561009757600080fd5b50600254606081901b6001600160601b031916608052600080546001600160a01b039283166001600160a01b031991821617909155600354600180549190931691161790556100e46100e9565b6102ca565b60408051600180825281830190925260009160208083019080368337019050509050308160008151811061011f5761011f6102b4565b60200260200101906001600160a01b031690816001600160a01b03168152505060008054906101000a90046001600160a01b03166001600160a01b031663a21a23e46040518163ffffffff1660e01b8152600401602060405180830381600087803b15801561018d57600080fd5b505af11580156101a1573d6000803e3d6000fd5b505050506040513d601f19601f820116820180604052508101906101c59190610284565b600880546001600160401b0319166001600160401b039290921691821790556000805483516001600160a01b0390911692637341c10c92909185919061020d5761020d6102b4565b60200260200101516040518363ffffffff1660e01b815260040161024f9291906001600160401b039290921682526001600160a01b0316602082015260400190565b600060405180830381600087803b15801561026957600080fd5b505af115801561027d573d6000803e3d6000fd5b5050505050565b60006020828403121561029657600080fd5b81516001600160401b03811681146102ad57600080fd5b9392505050565b634e487b7160e01b600052603260045260246000fd5b60805160601c61084e6102ef6000396000818161028e01526102d0015261084e6000f3fe608060405234801561001057600080fd5b50600436106100a95760003560e01c80638ac00021116100715780638ac000211461010f57806393d81d5814610141578063ce10b1fb14610154578063e0c8628914610166578063e89e106a1461016e578063f6eaffc81461017757600080fd5b80630e27e3df146100ae578063112940f9146100c35780631fe543e3146100d65780632116fe76146100e957806386850e93146100fc575b600080fd5b6100c16100bc366004610641565b61018a565b005b6100c16100d1366004610641565b61021f565b6100c16100e43660046106c5565b610283565b6100c16100f7366004610641565b61030f565b6100c161010a366004610693565b61034f565b6008546101239067ffffffffffffffff1681565b60405167ffffffffffffffff90911681526020015b60405180910390f35b6100c161014f366004610641565b610421565b6007545b604051908152602001610138565b6100c16104c6565b61015860075481565b610158610185366004610693565b6105a8565b600854600160401b90046001600160a01b031633146101a857600080fd5b600054600854604051639f87fad760e01b815267ffffffffffffffff90911660048201526001600160a01b03838116602483015290911690639f87fad7906044015b600060405180830381600087803b15801561020457600080fd5b505af1158015610218573d6000803e3d6000fd5b5050505050565b600854600160401b90046001600160a01b0316331461023d57600080fd5b600054600854604051631cd0704360e21b815267ffffffffffffffff90911660048201526001600160a01b03838116602483015290911690637341c10c906044016101ea565b336001600160a01b037f000000000000000000000000000000000000000000000000000000000000000016146103015760405163073e64fd60e21b81523360048201526001600160a01b037f000000000000000000000000000000000000000000000000000000000000000016602482015260440160405180910390fd5b61030b82826105c9565b5050565b600854600160401b90046001600160a01b0316331461032d57600080fd5b600980546001600160a01b0319166001600160a01b0392909216919091179055565b600854600160401b90046001600160a01b0316331461036d57600080fd5b6001546000546008546040805167ffffffffffffffff90921660208301526001600160a01b0393841693634000aea09316918591016040516020818303038152906040526040518463ffffffff1660e01b81526004016103cf93929190610796565b602060405180830381600087803b1580156103e957600080fd5b505af11580156103fd573d6000803e3d6000fd5b505050506040513d601f19601f8201168201806040525081019061030b9190610671565b600854600160401b90046001600160a01b0316331461043f57600080fd5b600054600854604051630d7ae1d360e41b815267ffffffffffffffff90911660048201526001600160a01b0383811660248301529091169063d7ae1d3090604401600060405180830381600087803b15801561049a57600080fd5b505af11580156104ae573d6000803e3d6000fd5b50506008805467ffffffffffffffff19169055505050565b6009546001600160a01b031633146104dd57600080fd5b600054600480546008546005546040516305d3b1d360e41b81529384019290925267ffffffffffffffff166024830152640100000000810461ffff16604483015263ffffffff808216606484015266010000000000009091041660848201526001600160a01b0390911690635d3b1d309060a401602060405180830381600087803b15801561056b57600080fd5b505af115801561057f573d6000803e3d6000fd5b505050506040513d601f19601f820116820180604052508101906105a391906106ac565b600755565b600681815481106105b857600080fd5b600091825260209091200154905081565b80516105dc9060069060208401906105e1565b505050565b82805482825590600052602060002090810192821561061c579160200282015b8281111561061c578251825591602001919060010190610601565b5061062892915061062c565b5090565b5b80821115610628576000815560010161062d565b60006020828403121561065357600080fd5b81356001600160a01b038116811461066a57600080fd5b9392505050565b60006020828403121561068357600080fd5b8151801515811461066a57600080fd5b6000602082840312156106a557600080fd5b5035919050565b6000602082840312156106be57600080fd5b5051919050565b600080604083850312156106d857600080fd5b8235915060208084013567ffffffffffffffff808211156106f857600080fd5b818601915086601f83011261070c57600080fd5b81358181111561071e5761071e610802565b8060051b604051601f19603f8301168101818110858211171561074357610743610802565b604052828152858101935084860182860187018b101561076257600080fd5b600095505b83861015610785578035855260019590950194938601938601610767565b508096505050505050509250929050565b60018060a01b038416815260006020848184015260606040840152835180606085015260005b818110156107d8578581018301518582016080015282016107bc565b818111156107ea576000608083870101525b50601f01601f19169290920160800195945050505050565b634e487b7160e01b600052604160045260246000fdfea2646970667358221220f42cb33bc7e74e088f13b05fe45f7cf0bd334eb2dbd2e9d53bae86862956546964736f6c63430008070033",
  "linkReferences": {},
  "deployedLinkReferences": {}
}