{
  "_format": "hh-sol-artifact-1",
  "contractName": "OdinNFTStaking",
  "sourceName": "contracts/OdinStaking.sol",
  "abi": [
    {
      "inputs": [
        {
          "internalType": "address",
          "name": "nftAddress_",
          "type": "address"
        },
        {
          "internalType": "address",
          "name": "rewardAddress_",
          "type": "address"
        },
        {
          "internalType": "address",
          "name": "adminRecoveryAddress_",
          "type": "address"
        }
      ],
      "stateMutability": "nonpayable",
      "type": "constructor"
    },
    {
      "anonymous": false,
      "inputs": [
        {
          "indexed": true,
          "internalType": "address",
          "name": "previousOwner",
          "type": "address"
        },
        {
          "indexed": true,
          "internalType": "address",
          "name": "newOwner",
          "type": "address"
        }
      ],
      "name": "OwnershipTransferred",
      "type": "event"
    },
    {
      "inputs": [],
      "name": "MarketAddress",
      "outputs": [
        {
          "internalType": "address",
          "name": "",
          "type": "address"
        }
      ],
      "stateMutability": "view",
      "type": "function"
    },
    {
      "inputs": [],
      "name": "NFTTokenAddress",
      "outputs": [
        {
          "internalType": "address",
          "name": "",
          "type": "address"
        }
      ],
      "stateMutability": "view",
      "type": "function"
    },
    {
      "inputs": [],
      "name": "_getNow",
      "outputs": [
        {
          "internalType": "uint256",
          "name": "",
          "type": "uint256"
        }
      ],
      "stateMutability": "view",
      "type": "function"
    },
    {
      "inputs": [],
      "name": "adminRecoveryAddress",
      "outputs": [
        {
          "internalType": "address",
          "name": "",
          "type": "address"
        }
      ],
      "stateMutability": "view",
      "type": "function"
    },
    {
      "inputs": [],
      "name": "claimReward",
      "outputs": [
        {
          "internalType": "bool",
          "name": "",
          "type": "bool"
        }
      ],
      "stateMutability": "nonpayable",
      "type": "function"
    },
    {
      "inputs": [
        {
          "internalType": "address",
          "name": "_owner",
          "type": "address"
        }
      ],
      "name": "getAccountLevelsInfo",
      "outputs": [
        {
          "internalType": "uint256[]",
          "name": "",
          "type": "uint256[]"
        }
      ],
      "stateMutability": "view",
      "type": "function"
    },
    {
      "inputs": [
        {
          "internalType": "address",
          "name": "_owner",
          "type": "address"
        }
      ],
      "name": "getIsStaking",
      "outputs": [
        {
          "internalType": "bool",
          "name": "",
          "type": "bool"
        }
      ],
      "stateMutability": "view",
      "type": "function"
    },
    {
      "inputs": [
        {
          "internalType": "address",
          "name": "_owner",
          "type": "address"
        }
      ],
      "name": "getLevelCount",
      "outputs": [
        {
          "internalType": "uint256",
          "name": "",
          "type": "uint256"
        }
      ],
      "stateMutability": "view",
      "type": "function"
    },
    {
      "inputs": [],
      "name": "getMarketAddress",
      "outputs": [
        {
          "internalType": "address",
          "name": "",
          "type": "address"
        }
      ],
      "stateMutability": "view",
      "type": "function"
    },
    {
      "inputs": [],
      "name": "getNFTTokenAddress",
      "outputs": [
        {
          "internalType": "address",
          "name": "",
          "type": "address"
        }
      ],
      "stateMutability": "view",
      "type": "function"
    },
    {
      "inputs": [
        {
          "internalType": "address",
          "name": "_owner",
          "type": "address"
        }
      ],
      "name": "getRestTime",
      "outputs": [
        {
          "internalType": "uint256",
          "name": "",
          "type": "uint256"
        }
      ],
      "stateMutability": "view",
      "type": "function"
    },
    {
      "inputs": [
        {
          "internalType": "address",
          "name": "_owner",
          "type": "address"
        }
      ],
      "name": "getRewardPercentage",
      "outputs": [
        {
          "internalType": "uint256",
          "name": "",
          "type": "uint256"
        }
      ],
      "stateMutability": "view",
      "type": "function"
    },
    {
      "inputs": [],
      "name": "getRewardTokenAddress",
      "outputs": [
        {
          "internalType": "address",
          "name": "",
          "type": "address"
        }
      ],
      "stateMutability": "view",
      "type": "function"
    },
    {
      "inputs": [
        {
          "internalType": "address",
          "name": "_owner",
          "type": "address"
        }
      ],
      "name": "getStakedTokens",
      "outputs": [
        {
          "internalType": "uint256[]",
          "name": "",
          "type": "uint256[]"
        }
      ],
      "stateMutability": "view",
      "type": "function"
    },
    {
      "inputs": [
        {
          "internalType": "address",
          "name": "_owner",
          "type": "address"
        }
      ],
      "name": "getTokenCount",
      "outputs": [
        {
          "internalType": "uint256",
          "name": "",
          "type": "uint256"
        }
      ],
      "stateMutability": "view",
      "type": "function"
    },
    {
      "inputs": [
        {
          "internalType": "address",
          "name": "_owner",
          "type": "address"
        }
      ],
      "name": "getTokensOfOwner",
      "outputs": [
        {
          "internalType": "uint256[]",
          "name": "",
          "type": "uint256[]"
        }
      ],
      "stateMutability": "view",
      "type": "function"
    },
    {
      "inputs": [],
      "name": "iMarket",
      "outputs": [
        {
          "internalType": "contract IMarket",
          "name": "",
          "type": "address"
        }
      ],
      "stateMutability": "view",
      "type": "function"
    },
    {
      "inputs": [],
      "name": "iODINNFT",
      "outputs": [
        {
          "internalType": "contract IODINNFT",
          "name": "",
          "type": "address"
        }
      ],
      "stateMutability": "view",
      "type": "function"
    },
    {
      "inputs": [],
      "name": "iODINToken",
      "outputs": [
        {
          "internalType": "contract IODINToken",
          "name": "",
          "type": "address"
        }
      ],
      "stateMutability": "view",
      "type": "function"
    },
    {
      "inputs": [
        {
          "internalType": "address",
          "name": "owner",
          "type": "address"
        }
      ],
      "name": "isClaimable",
      "outputs": [
        {
          "internalType": "bool",
          "name": "",
          "type": "bool"
        }
      ],
      "stateMutability": "view",
      "type": "function"
    },
    {
      "inputs": [
        {
          "internalType": "address",
          "name": "owner",
          "type": "address"
        }
      ],
      "name": "isStakable",
      "outputs": [
        {
          "internalType": "bool",
          "name": "",
          "type": "bool"
        }
      ],
      "stateMutability": "nonpayable",
      "type": "function"
    },
    {
      "inputs": [
        {
          "internalType": "address",
          "name": "",
          "type": "address"
        }
      ],
      "name": "levelCountOfOwner",
      "outputs": [
        {
          "internalType": "uint256",
          "name": "",
          "type": "uint256"
        }
      ],
      "stateMutability": "view",
      "type": "function"
    },
    {
      "inputs": [
        {
          "internalType": "address",
          "name": "",
          "type": "address"
        },
        {
          "internalType": "uint256",
          "name": "",
          "type": "uint256"
        }
      ],
      "name": "levelOfOwner",
      "outputs": [
        {
          "internalType": "bool",
          "name": "",
          "type": "bool"
        }
      ],
      "stateMutability": "view",
      "type": "function"
    },
    {
      "inputs": [],
      "name": "owner",
      "outputs": [
        {
          "internalType": "address",
          "name": "",
          "type": "address"
        }
      ],
      "stateMutability": "view",
      "type": "function"
    },
    {
      "inputs": [],
      "name": "renounceOwnership",
      "outputs": [],
      "stateMutability": "nonpayable",
      "type": "function"
    },
    {
      "inputs": [
        {
          "internalType": "uint256",
          "name": "",
          "type": "uint256"
        }
      ],
      "name": "rewardPercentage",
      "outputs": [
        {
          "internalType": "uint256",
          "name": "",
          "type": "uint256"
        }
      ],
      "stateMutability": "view",
      "type": "function"
    },
    {
      "inputs": [],
      "name": "rewardTokenAddress",
      "outputs": [
        {
          "internalType": "address",
          "name": "",
          "type": "address"
        }
      ],
      "stateMutability": "view",
      "type": "function"
    },
    {
      "inputs": [
        {
          "internalType": "address",
          "name": "_new",
          "type": "address"
        }
      ],
      "name": "setMarketAddress",
      "outputs": [],
      "stateMutability": "nonpayable",
      "type": "function"
    },
    {
      "inputs": [],
      "name": "setMarketContract",
      "outputs": [],
      "stateMutability": "nonpayable",
      "type": "function"
    },
    {
      "inputs": [],
      "name": "setNFTContract",
      "outputs": [],
      "stateMutability": "nonpayable",
      "type": "function"
    },
    {
      "inputs": [
        {
          "internalType": "address",
          "name": "_new",
          "type": "address"
        }
      ],
      "name": "setNFTTokenAddress",
      "outputs": [],
      "stateMutability": "nonpayable",
      "type": "function"
    },
    {
      "inputs": [],
      "name": "setRewardContract",
      "outputs": [],
      "stateMutability": "nonpayable",
      "type": "function"
    },
    {
      "inputs": [
        {
          "internalType": "address",
          "name": "_owner",
          "type": "address"
        },
        {
          "internalType": "uint256",
          "name": "_period",
          "type": "uint256"
        }
      ],
      "name": "setRewardPercentage",
      "outputs": [
        {
          "internalType": "uint256",
          "name": "",
          "type": "uint256"
        }
      ],
      "stateMutability": "view",
      "type": "function"
    },
    {
      "inputs": [
        {
          "internalType": "address",
          "name": "_new",
          "type": "address"
        }
      ],
      "name": "setRewardTokenAddress",
      "outputs": [],
      "stateMutability": "nonpayable",
      "type": "function"
    },
    {
      "inputs": [
        {
          "internalType": "uint256",
          "name": "_period",
          "type": "uint256"
        }
      ],
      "name": "stake",
      "outputs": [],
      "stateMutability": "nonpayable",
      "type": "function"
    },
    {
      "inputs": [
        {
          "internalType": "address",
          "name": "",
          "type": "address"
        }
      ],
      "name": "stakers",
      "outputs": [
        {
          "internalType": "uint256",
          "name": "lastStartTime",
          "type": "uint256"
        },
        {
          "internalType": "uint256",
          "name": "readyTime",
          "type": "uint256"
        },
        {
          "internalType": "uint256",
          "name": "period",
          "type": "uint256"
        },
        {
          "internalType": "uint256",
          "name": "rewardPercentage",
          "type": "uint256"
        },
        {
          "internalType": "uint256",
          "name": "bonusPercentage",
          "type": "uint256"
        },
        {
          "internalType": "bool",
          "name": "isStaking",
          "type": "bool"
        }
      ],
      "stateMutability": "view",
      "type": "function"
    },
    {
      "inputs": [
        {
          "internalType": "address",
          "name": "newOwner",
          "type": "address"
        }
      ],
      "name": "transferOwnership",
      "outputs": [],
      "stateMutability": "nonpayable",
      "type": "function"
    }
  ],
  "bytecode": "0x6101a060405260056080908152600a60a052600f60c052601460e052601961010052601e6101205260236101405260286101605260326101805262000048906009908162000138565b503480156200005657600080fd5b50604051620021a6380380620021a68339810160408190526200007991620001c1565b6200008433620000e8565b600580546001600160a01b039384166001600160a01b0319918216811790925560068054958516958216861790556008805493909416928116929092179092556007805482169055600180548216909317909255600280549092161790556200020b565b600080546001600160a01b038381166001600160a01b0319831681178455604051919092169283917f8be0079c531659141344cd1fd0a4f28419497f9722a3daafe3b4186f6b6457e09190a35050565b8280548282559060005260206000209081019282156200017b579160200282015b828111156200017b578251829060ff1690559160200191906001019062000159565b50620001899291506200018d565b5090565b5b808211156200018957600081556001016200018e565b80516001600160a01b0381168114620001bc57600080fd5b919050565b600080600060608486031215620001d757600080fd5b620001e284620001a4565b9250620001f260208501620001a4565b91506200020260408501620001a4565b90509250925092565b611f8b806200021b6000396000f3fe608060405234801561001057600080fd5b50600436106102275760003560e01c806376727fa311610130578063ae61aa0a116100b8578063e7334fe51161007c578063e7334fe51461054b578063f2fde38b1461055c578063fae926121461056f578063fafe0d1f14610582578063ffae9c501461059557600080fd5b8063ae61aa0a146104d9578063b88a802f14610508578063c8ef3d6514610510578063d26ba7ff14610518578063d45c1d581461053857600080fd5b80639168ae72116100ff5780639168ae721461042457806399e117a01461049c5780639a6acf20146104ad578063a694fc3a146104c0578063a78beb88146104d357600080fd5b806376727fa3146103dc5780637ee285e8146103ef57806389f6e00d146104005780638da5cb5b1461041357600080fd5b8063480a7472116101b357806363c28db11161018257806363c28db1146103575780636ecbade11461036a5780636f52d0b61461037d578063715018a6146103a657806373ac74bf146103ae57600080fd5b8063480a74721461030b5780635da5829d1461031e5780635de6dc5514610331578063619f7cd01461034457600080fd5b80631a2d66c2116101fa5780631a2d66c21461029a5780631e1e2150146102ad578063292fec04146102cd5780632c404d83146102f0578063474cfba31461030357600080fd5b80630b0ce8e61461022c578063113f920514610236578063125f9e331461025c57806316ead07314610287575b600080fd5b6102346105a8565b005b610249610244366004611b8f565b6105ff565b6040519081526020015b60405180910390f35b60055461026f906001600160a01b031681565b6040516001600160a01b039091168152602001610253565b60035461026f906001600160a01b031681565b60015461026f906001600160a01b031681565b6102c06102bb366004611b8f565b610659565b6040516102539190611d85565b6102e06102db366004611b8f565b6106e2565b6040519015158152602001610253565b60025461026f906001600160a01b031681565b61023461073f565b610234610319366004611b8f565b61078d565b61024961032c366004611baa565b6107d9565b6102c061033f366004611b8f565b610abf565b610249610352366004611d37565b610af2565b6102c0610365366004611b8f565b610b13565b610249610378366004611b8f565b610b7f565b61024961038b366004611b8f565b6001600160a01b03166000908152600c602052604090205490565b610234610be9565b6102e06103bc366004611baa565b600b60209081526000928352604080842090915290825290205460ff1681565b6102496103ea366004611b8f565b610c1f565b6006546001600160a01b031661026f565b6102e061040e366004611b8f565b610c9d565b6000546001600160a01b031661026f565b61046d610432366004611b8f565b600a60205260009081526040902060018101546002820154600383015460048401546005850154600690950154939492939192909160ff1686565b6040805196875260208701959095529385019290925260608401526080830152151560a082015260c001610253565b6005546001600160a01b031661026f565b6102346104bb366004611b8f565b610da3565b6102346104ce366004611d37565b610def565b42610249565b6102e06104e7366004611b8f565b6001600160a01b03166000908152600a602052604090206006015460ff1690565b6102e0610fe6565b6102346112cb565b610249610526366004611b8f565b600c6020526000908152604090205481565b60065461026f906001600160a01b031681565b6007546001600160a01b031661026f565b61023461056a366004611b8f565b611319565b61023461057d366004611b8f565b6113b4565b60085461026f906001600160a01b031681565b60075461026f906001600160a01b031681565b6000546001600160a01b031633146105db5760405162461bcd60e51b81526004016105d290611df2565b60405180910390fd5b600754600380546001600160a01b0319166001600160a01b03909216919091179055565b6001600160a01b0381166000908152600a602052604081206006015460ff1661063a5760405162461bcd60e51b81526004016105d290611dc9565b506001600160a01b03166000908152600a602052604090206004015490565b600154604051630cc862bd60e31b81526001600160a01b038381166004830152606092169063664315e8906024015b60006040518083038186803b1580156106a057600080fd5b505afa1580156106b4573d6000803e3d6000fd5b505050506040513d6000823e601f3d908101601f191682016040526106dc9190810190611bd4565b92915050565b6001600160a01b0381166000908152600a602052604081206006015460ff1661071d5760405162461bcd60e51b81526004016105d290611dc9565b506001600160a01b03166000908152600a602052604090206002015442101590565b6000546001600160a01b031633146107695760405162461bcd60e51b81526004016105d290611df2565b600554600280546001600160a01b0319166001600160a01b03909216919091179055565b6000546001600160a01b031633146107b75760405162461bcd60e51b81526004016105d290611df2565b600680546001600160a01b0319166001600160a01b0392909216919091179055565b6007546000906001600160a01b03166108345760405162461bcd60e51b815260206004820152601760248201527f4e6f742073746172746564206d61726b6574706c61636500000000000000000060448201526064016105d2565b60008061084085610abf565b905060005b8151811015610a0d5760035482516000916001600160a01b03169063808d6d299085908590811061087857610878611f29565b60200260200101516040518263ffffffff1660e01b815260040161089e91815260200190565b60006040518083038186803b1580156108b657600080fd5b505afa1580156108ca573d6000803e3d6000fd5b505050506040513d6000823e601f3d908101601f191682016040526108f29190810190611ca3565b6040516221272160e91b6020820152909150602301604051602081830303815290604052805190602001208160405160200161092e9190611d69565b6040516020818303038152906040528051906020012014156109fa5760035483516000916001600160a01b03169063c457fb379086908690811061097457610974611f29565b60200260200101516040518263ffffffff1660e01b815260040161099a91815260200190565b60206040518083038186803b1580156109b257600080fd5b505afa1580156109c6573d6000803e3d6000fd5b505050506040513d601f19601f820116820180604052508101906109ea9190611d50565b90506109f68582611400565b9450505b5080610a0581611ef8565b915050610845565b506005546008546040516370a0823160e01b81526001600160a01b03918216600482015260009291909116906370a082319060240160206040518083038186803b158015610a5a57600080fd5b505afa158015610a6e573d6000803e3d6000fd5b505050506040513d601f19601f82011682018060405250810190610a929190611d50565b90506000610ab4610aa483600a61140c565b610aae868961140c565b90611418565b979650505050505050565b600154604051635de6dc5560e01b81526001600160a01b0383811660048301526060921690635de6dc5590602401610688565b60098181548110610b0257600080fd5b600091825260209091200154905081565b6001600160a01b0381166000908152600a6020908152604091829020805483518184028101840190945280845260609392830182828015610b7357602002820191906000526020600020905b815481526020019060010190808311610b5f575b50505050509050919050565b6001600160a01b0381166000908152600a602052604081206006015460ff16610bba5760405162461bcd60e51b81526004016105d290611dc9565b6001600160a01b0382166000908152600a60205260409020600201544290610be29082611424565b9392505050565b6000546001600160a01b03163314610c135760405162461bcd60e51b81526004016105d290611df2565b610c1d6000611430565b565b6001546040516370a0823160e01b81526001600160a01b03838116600483015260009216906370a082319060240160206040518083038186803b158015610c6557600080fd5b505afa158015610c79573d6000803e3d6000fd5b505050506040513d601f19601f820116820180604052508101906106dc9190611d50565b60006001610caa83610c1f565b11610cf75760405162461bcd60e51b815260206004820152601960248201527f4d7573742068617665206174206c656173742032204e4654730000000000000060448201526064016105d2565b600154604051630cc862bd60e31b81526001600160a01b038481166004830152600092839291169063664315e89060240160006040518083038186803b158015610d4057600080fd5b505afa158015610d54573d6000803e3d6000fd5b505050506040513d6000823e601f3d908101601f19168201604052610d7c9190810190611bd4565b90506000610d8a8583611480565b90506001811115610d9a57600192505b50909392505050565b6000546001600160a01b03163314610dcd5760405162461bcd60e51b81526004016105d290611df2565b600580546001600160a01b0319166001600160a01b0392909216919091179055565b610df833610c9d565b610e505760405162461bcd60e51b815260206004820152602360248201527f4d7573742068617665206174206c65617374203220646966666572656e74204e60448201526246547360e81b60648201526084016105d2565b6000610e5b33610abf565b905060005b8151811015610f1b5760015482516001600160a01b03909116906323b872dd9033903090869086908110610e9657610e96611f29565b60209081029190910101516040516001600160e01b031960e086901b1681526001600160a01b0393841660048201529290911660248301526044820152606401600060405180830381600087803b158015610ef057600080fd5b505af1158015610f04573d6000803e3d6000fd5b505050508080610f1390611ef8565b915050610e60565b50610f2533610abf565b336000908152600a602090815260409091208251610f499391929190910190611b13565b5042336000908152600a6020526040902060010155610f6b620151808361140c565b610f759042611e58565b336000818152600a6020526040902060028101929092556003909101839055610f9e90836107d9565b336000818152600a6020526040902060040191909155610fbd906115c3565b336000908152600a602052604090206005810191909155600601805460ff191660011790555050565b600080610ff2336106e2565b9050806110325760405162461bcd60e51b815260206004820152600e60248201526d6e6f742072656164792074696d6560901b60448201526064016105d2565b6005546040516370a0823160e01b81523060048201526000916001600160a01b0316906370a082319060240160206040518083038186803b15801561107657600080fd5b505afa15801561108a573d6000803e3d6000fd5b505050506040513d601f19601f820116820180604052508101906110ae9190611d50565b600254336000818152600a60205260408120600581015460049091015494955090936001600160a01b039093169263beabacc8923092909161110291606491610aae916110fb9190611400565b899061140c565b6040516001600160e01b031960e086901b1681526001600160a01b0393841660048201529290911660248301526044820152606401602060405180830381600087803b15801561115157600080fd5b505af1158015611165573d6000803e3d6000fd5b505050506040513d601f19601f820116820180604052508101906111899190611c81565b336000908152600a60209081526040808320805482518185028101850190935280835294955092939092918301828280156111e357602002820191906000526020600020905b8154815260200190600101908083116111cf575b5050505050905060005b81518110156112a85760015482516001600160a01b03909116906323b872dd903090339086908690811061122357611223611f29565b60209081029190910101516040516001600160e01b031960e086901b1681526001600160a01b0393841660048201529290911660248301526044820152606401600060405180830381600087803b15801561127d57600080fd5b505af1158015611291573d6000803e3d6000fd5b5050505080806112a090611ef8565b9150506111ed565b5050336000908152600a60205260409020600601805460ff191690559392505050565b6000546001600160a01b031633146112f55760405162461bcd60e51b81526004016105d290611df2565b600654600180546001600160a01b0319166001600160a01b03909216919091179055565b6000546001600160a01b031633146113435760405162461bcd60e51b81526004016105d290611df2565b6001600160a01b0381166113a85760405162461bcd60e51b815260206004820152602660248201527f4f776e61626c653a206e6577206f776e657220697320746865207a65726f206160448201526564647265737360d01b60648201526084016105d2565b6113b181611430565b50565b6000546001600160a01b031633146113de5760405162461bcd60e51b81526004016105d290611df2565b600780546001600160a01b0319166001600160a01b0392909216919091179055565b6000610be28284611e58565b6000610be28284611e92565b6000610be28284611e70565b6000610be28284611eb1565b600080546001600160a01b038381166001600160a01b0319831681178455604051919092169283917f8be0079c531659141344cd1fd0a4f28419497f9722a3daafe3b4186f6b6457e09190a35050565b6000808251116114c35760405162461bcd60e51b815260206004820152600e60248201526d6e6f7468696e67206c6576656c7360901b60448201526064016105d2565b6000805b835181101561159f576001600160a01b0385166000908152600b6020526040812085519091908690849081106114ff576114ff611f29565b60209081029190910181015182528101919091526040016000205460ff1661158d576001600160a01b0385166000908152600b6020526040812085516001929087908590811061155157611551611f29565b6020026020010151815260200190815260200160002060006101000a81548160ff021916908315150217905550818061158990611ef8565b9250505b8061159781611ef8565b9150506114c7565b506001600160a01b0384166000908152600c60205260409020819055905092915050565b6001600160a01b0381166000908152600b6020908152604080832060028452909152812054819060ff16801561161d57506001600160a01b0383166000908152600b602090815260408083206003845290915290205460ff165b15611626575060055b6001600160a01b0383166000908152600b602090815260408083206003845290915290205460ff16801561167e57506001600160a01b0383166000908152600b602090815260408083206004845290915290205460ff165b156116875750600a5b6001600160a01b0383166000908152600b602090815260408083206004845290915290205460ff1680156116df57506001600160a01b0383166000908152600b602090815260408083206005845290915290205460ff165b156116e85750600f5b6001600160a01b0383166000908152600b602090815260408083206001845290915290205460ff16801561174057506001600160a01b0383166000908152600b602090815260408083206002845290915290205460ff165b801561177057506001600160a01b0383166000908152600b602090815260408083206003845290915290205460ff165b15611779575060145b6001600160a01b0383166000908152600b602090815260408083206002845290915290205460ff1680156117d157506001600160a01b0383166000908152600b602090815260408083206003845290915290205460ff165b801561180157506001600160a01b0383166000908152600b602090815260408083206004845290915290205460ff165b1561180a575060195b6001600160a01b0383166000908152600b602090815260408083206003845290915290205460ff16801561186257506001600160a01b0383166000908152600b602090815260408083206004845290915290205460ff165b801561189257506001600160a01b0383166000908152600b602090815260408083206005845290915290205460ff165b1561189b5750601e5b6001600160a01b0383166000908152600b602090815260408083206001845290915290205460ff1680156118f357506001600160a01b0383166000908152600b602090815260408083206002845290915290205460ff165b801561192357506001600160a01b0383166000908152600b602090815260408083206003845290915290205460ff165b801561195357506001600160a01b0383166000908152600b602090815260408083206004845290915290205460ff165b1561195c575060235b6001600160a01b0383166000908152600b602090815260408083206002845290915290205460ff1680156119b457506001600160a01b0383166000908152600b602090815260408083206003845290915290205460ff165b80156119e457506001600160a01b0383166000908152600b602090815260408083206004845290915290205460ff165b8015611a1457506001600160a01b0383166000908152600b602090815260408083206005845290915290205460ff165b15611a1d575060285b6001600160a01b0383166000908152600b602090815260408083206001845290915290205460ff168015611a7557506001600160a01b0383166000908152600b602090815260408083206002845290915290205460ff165b8015611aa557506001600160a01b0383166000908152600b602090815260408083206003845290915290205460ff165b8015611ad557506001600160a01b0383166000908152600b602090815260408083206004845290915290205460ff165b8015611b0557506001600160a01b0383166000908152600b602090815260408083206005845290915290205460ff165b156106dc5750603292915050565b828054828255906000526020600020908101928215611b4e579160200282015b82811115611b4e578251825591602001919060010190611b33565b50611b5a929150611b5e565b5090565b5b80821115611b5a5760008155600101611b5f565b80356001600160a01b0381168114611b8a57600080fd5b919050565b600060208284031215611ba157600080fd5b610be282611b73565b60008060408385031215611bbd57600080fd5b611bc683611b73565b946020939093013593505050565b60006020808385031215611be757600080fd5b825167ffffffffffffffff80821115611bff57600080fd5b818501915085601f830112611c1357600080fd5b815181811115611c2557611c25611f3f565b8060051b9150611c36848301611e27565b8181528481019084860184860187018a1015611c5157600080fd5b600095505b83861015611c74578051835260019590950194918601918601611c56565b5098975050505050505050565b600060208284031215611c9357600080fd5b81518015158114610be257600080fd5b600060208284031215611cb557600080fd5b815167ffffffffffffffff80821115611ccd57600080fd5b818401915084601f830112611ce157600080fd5b815181811115611cf357611cf3611f3f565b611d06601f8201601f1916602001611e27565b9150808252856020828501011115611d1d57600080fd5b611d2e816020840160208601611ec8565b50949350505050565b600060208284031215611d4957600080fd5b5035919050565b600060208284031215611d6257600080fd5b5051919050565b60008251611d7b818460208701611ec8565b9190910192915050565b6020808252825182820181905260009190848201906040850190845b81811015611dbd57835183529284019291840191600101611da1565b50909695505050505050565b6020808252600f908201526e26bab9ba1031329039ba30b5b2b21760891b604082015260600190565b6020808252818101527f4f776e61626c653a2063616c6c6572206973206e6f7420746865206f776e6572604082015260600190565b604051601f8201601f1916810167ffffffffffffffff81118282101715611e5057611e50611f3f565b604052919050565b60008219821115611e6b57611e6b611f13565b500190565b600082611e8d57634e487b7160e01b600052601260045260246000fd5b500490565b6000816000190483118215151615611eac57611eac611f13565b500290565b600082821015611ec357611ec3611f13565b500390565b60005b83811015611ee3578181015183820152602001611ecb565b83811115611ef2576000848401525b50505050565b6000600019821415611f0c57611f0c611f13565b5060010190565b634e487b7160e01b600052601160045260246000fd5b634e487b7160e01b600052603260045260246000fd5b634e487b7160e01b600052604160045260246000fdfea2646970667358221220b420e975d0923c2916a75dc5ae066d774d7b6b42c1c8095b49eabac2948270f564736f6c63430008070033",
  "linkReferences": {},
  "deployedLinkReferences": {}
}