{
  "_format": "hh-sol-artifact-1",
  "contractName": "Odin",
  "sourceName": "contracts/Odin.sol",
  "abi": [
    {
      "anonymous": false,
      "inputs": [
        {
          "indexed": true,
          "internalType": "address",
          "name": "owner",
          "type": "address"
        },
        {
          "indexed": true,
          "internalType": "address",
          "name": "spender",
          "type": "address"
        },
        {
          "indexed": false,
          "internalType": "uint256",
          "name": "value",
          "type": "uint256"
        }
      ],
      "name": "Approval",
      "type": "event"
    },
    {
      "anonymous": false,
      "inputs": [
        {
          "indexed": false,
          "internalType": "uint8",
          "name": "version",
          "type": "uint8"
        }
      ],
      "name": "Initialized",
      "type": "event"
    },
    {
      "anonymous": false,
      "inputs": [
        {
          "indexed": true,
          "internalType": "address",
          "name": "previousOwner",
          "type": "address"
        },
        {
          "indexed": true,
          "internalType": "address",
          "name": "newOwner",
          "type": "address"
        }
      ],
      "name": "OwnershipTransferred",
      "type": "event"
    },
    {
      "anonymous": false,
      "inputs": [
        {
          "indexed": false,
          "internalType": "uint256",
          "name": "tokensSwapped",
          "type": "uint256"
        },
        {
          "indexed": false,
          "internalType": "uint256",
          "name": "usdtReceived",
          "type": "uint256"
        },
        {
          "indexed": false,
          "internalType": "uint256",
          "name": "tokensIntoLiqudity",
          "type": "uint256"
        }
      ],
      "name": "SwapAndLiquify",
      "type": "event"
    },
    {
      "anonymous": false,
      "inputs": [
        {
          "indexed": true,
          "internalType": "address",
          "name": "from",
          "type": "address"
        },
        {
          "indexed": true,
          "internalType": "address",
          "name": "to",
          "type": "address"
        },
        {
          "indexed": false,
          "internalType": "uint256",
          "name": "value",
          "type": "uint256"
        }
      ],
      "name": "Transfer",
      "type": "event"
    },
    {
      "inputs": [],
      "name": "_maxTxAmount",
      "outputs": [
        {
          "internalType": "uint256",
          "name": "",
          "type": "uint256"
        }
      ],
      "stateMutability": "view",
      "type": "function"
    },
    {
      "inputs": [],
      "name": "_rewardFee",
      "outputs": [
        {
          "internalType": "uint256",
          "name": "",
          "type": "uint256"
        }
      ],
      "stateMutability": "view",
      "type": "function"
    },
    {
      "inputs": [],
      "name": "_stakingFee",
      "outputs": [
        {
          "internalType": "uint256",
          "name": "",
          "type": "uint256"
        }
      ],
      "stateMutability": "view",
      "type": "function"
    },
    {
      "inputs": [],
      "name": "_taxFee",
      "outputs": [
        {
          "internalType": "uint256",
          "name": "",
          "type": "uint256"
        }
      ],
      "stateMutability": "view",
      "type": "function"
    },
    {
      "inputs": [],
      "name": "_taxNFTFee",
      "outputs": [
        {
          "internalType": "uint256",
          "name": "",
          "type": "uint256"
        }
      ],
      "stateMutability": "view",
      "type": "function"
    },
    {
      "inputs": [
        {
          "internalType": "address",
          "name": "owner",
          "type": "address"
        },
        {
          "internalType": "address",
          "name": "spender",
          "type": "address"
        }
      ],
      "name": "allowance",
      "outputs": [
        {
          "internalType": "uint256",
          "name": "",
          "type": "uint256"
        }
      ],
      "stateMutability": "view",
      "type": "function"
    },
    {
      "inputs": [
        {
          "internalType": "address",
          "name": "spender",
          "type": "address"
        },
        {
          "internalType": "uint256",
          "name": "amount",
          "type": "uint256"
        }
      ],
      "name": "approve",
      "outputs": [
        {
          "internalType": "bool",
          "name": "",
          "type": "bool"
        }
      ],
      "stateMutability": "nonpayable",
      "type": "function"
    },
    {
      "inputs": [],
      "name": "autoLiquidity",
      "outputs": [
        {
          "internalType": "uint256",
          "name": "",
          "type": "uint256"
        }
      ],
      "stateMutability": "view",
      "type": "function"
    },
    {
      "inputs": [
        {
          "internalType": "address",
          "name": "account",
          "type": "address"
        }
      ],
      "name": "balanceOf",
      "outputs": [
        {
          "internalType": "uint256",
          "name": "",
          "type": "uint256"
        }
      ],
      "stateMutability": "view",
      "type": "function"
    },
    {
      "inputs": [],
      "name": "charityMinimum",
      "outputs": [
        {
          "internalType": "uint256",
          "name": "",
          "type": "uint256"
        }
      ],
      "stateMutability": "view",
      "type": "function"
    },
    {
      "inputs": [],
      "name": "dailyAddress",
      "outputs": [
        {
          "internalType": "address",
          "name": "",
          "type": "address"
        }
      ],
      "stateMutability": "view",
      "type": "function"
    },
    {
      "inputs": [],
      "name": "decimals",
      "outputs": [
        {
          "internalType": "uint8",
          "name": "",
          "type": "uint8"
        }
      ],
      "stateMutability": "view",
      "type": "function"
    },
    {
      "inputs": [
        {
          "internalType": "address",
          "name": "spender",
          "type": "address"
        },
        {
          "internalType": "uint256",
          "name": "subtractedValue",
          "type": "uint256"
        }
      ],
      "name": "decreaseAllowance",
      "outputs": [
        {
          "internalType": "bool",
          "name": "",
          "type": "bool"
        }
      ],
      "stateMutability": "nonpayable",
      "type": "function"
    },
    {
      "inputs": [
        {
          "internalType": "address",
          "name": "account",
          "type": "address"
        }
      ],
      "name": "excludeFromFee",
      "outputs": [],
      "stateMutability": "nonpayable",
      "type": "function"
    },
    {
      "inputs": [
        {
          "internalType": "address",
          "name": "account",
          "type": "address"
        }
      ],
      "name": "excludeFromReward",
      "outputs": [],
      "stateMutability": "nonpayable",
      "type": "function"
    },
    {
      "inputs": [],
      "name": "getStakingAddress",
      "outputs": [
        {
          "internalType": "address",
          "name": "",
          "type": "address"
        }
      ],
      "stateMutability": "view",
      "type": "function"
    },
    {
      "inputs": [
        {
          "internalType": "uint256",
          "name": "seed",
          "type": "uint256"
        }
      ],
      "name": "getWinner",
      "outputs": [
        {
          "internalType": "address",
          "name": "",
          "type": "address"
        }
      ],
      "stateMutability": "view",
      "type": "function"
    },
    {
      "inputs": [],
      "name": "hourlyAddress",
      "outputs": [
        {
          "internalType": "address",
          "name": "",
          "type": "address"
        }
      ],
      "stateMutability": "view",
      "type": "function"
    },
    {
      "inputs": [],
      "name": "iODINNFT",
      "outputs": [
        {
          "internalType": "contract IODINNFT",
          "name": "",
          "type": "address"
        }
      ],
      "stateMutability": "view",
      "type": "function"
    },
    {
      "inputs": [],
      "name": "iVRFV2RandomGeneration",
      "outputs": [
        {
          "internalType": "contract IVRFV2RandomGeneration",
          "name": "",
          "type": "address"
        }
      ],
      "stateMutability": "view",
      "type": "function"
    },
    {
      "inputs": [
        {
          "internalType": "address",
          "name": "account",
          "type": "address"
        }
      ],
      "name": "includeInFee",
      "outputs": [],
      "stateMutability": "nonpayable",
      "type": "function"
    },
    {
      "inputs": [
        {
          "internalType": "address",
          "name": "account",
          "type": "address"
        }
      ],
      "name": "includeInReward",
      "outputs": [],
      "stateMutability": "nonpayable",
      "type": "function"
    },
    {
      "inputs": [
        {
          "internalType": "address",
          "name": "spender",
          "type": "address"
        },
        {
          "internalType": "uint256",
          "name": "addedValue",
          "type": "uint256"
        }
      ],
      "name": "increaseAllowance",
      "outputs": [
        {
          "internalType": "bool",
          "name": "",
          "type": "bool"
        }
      ],
      "stateMutability": "nonpayable",
      "type": "function"
    },
    {
      "inputs": [
        {
          "internalType": "address",
          "name": "_nftAddress",
          "type": "address"
        },
        {
          "internalType": "address payable",
          "name": "routerAddress",
          "type": "address"
        },
        {
          "internalType": "address",
          "name": "_usdtAddress",
          "type": "address"
        },
        {
          "internalType": "address",
          "name": "_vrfAddress",
          "type": "address"
        },
        {
          "internalType": "uint256",
          "name": "_presaleEndsIn",
          "type": "uint256"
        }
      ],
      "name": "initialize",
      "outputs": [],
      "stateMutability": "nonpayable",
      "type": "function"
    },
    {
      "inputs": [
        {
          "internalType": "address",
          "name": "account",
          "type": "address"
        }
      ],
      "name": "isExcludedFromFee",
      "outputs": [
        {
          "internalType": "bool",
          "name": "",
          "type": "bool"
        }
      ],
      "stateMutability": "view",
      "type": "function"
    },
    {
      "inputs": [
        {
          "internalType": "address",
          "name": "account",
          "type": "address"
        }
      ],
      "name": "isExcludedFromReward",
      "outputs": [
        {
          "internalType": "bool",
          "name": "",
          "type": "bool"
        }
      ],
      "stateMutability": "view",
      "type": "function"
    },
    {
      "inputs": [
        {
          "internalType": "uint256",
          "name": "",
          "type": "uint256"
        }
      ],
      "name": "levelFees",
      "outputs": [
        {
          "internalType": "uint256",
          "name": "",
          "type": "uint256"
        }
      ],
      "stateMutability": "view",
      "type": "function"
    },
    {
      "inputs": [],
      "name": "lotteryDaily",
      "outputs": [
        {
          "internalType": "uint256",
          "name": "",
          "type": "uint256"
        }
      ],
      "stateMutability": "view",
      "type": "function"
    },
    {
      "inputs": [],
      "name": "lotteryHourly",
      "outputs": [
        {
          "internalType": "uint256",
          "name": "",
          "type": "uint256"
        }
      ],
      "stateMutability": "view",
      "type": "function"
    },
    {
      "inputs": [],
      "name": "lotteryLimitAmount",
      "outputs": [
        {
          "internalType": "uint256",
          "name": "",
          "type": "uint256"
        }
      ],
      "stateMutability": "view",
      "type": "function"
    },
    {
      "inputs": [
        {
          "internalType": "address",
          "name": "_winner",
          "type": "address"
        }
      ],
      "name": "lotteryTransfer",
      "outputs": [],
      "stateMutability": "nonpayable",
      "type": "function"
    },
    {
      "inputs": [],
      "name": "name",
      "outputs": [
        {
          "internalType": "string",
          "name": "",
          "type": "string"
        }
      ],
      "stateMutability": "view",
      "type": "function"
    },
    {
      "inputs": [],
      "name": "owner",
      "outputs": [
        {
          "internalType": "address",
          "name": "",
          "type": "address"
        }
      ],
      "stateMutability": "view",
      "type": "function"
    },
    {
      "inputs": [],
      "name": "pausedLottery",
      "outputs": [
        {
          "internalType": "bool",
          "name": "",
          "type": "bool"
        }
      ],
      "stateMutability": "view",
      "type": "function"
    },
    {
      "inputs": [],
      "name": "presaleEndsIn",
      "outputs": [
        {
          "internalType": "uint256",
          "name": "",
          "type": "uint256"
        }
      ],
      "stateMutability": "view",
      "type": "function"
    },
    {
      "inputs": [
        {
          "internalType": "uint256",
          "name": "tAmount",
          "type": "uint256"
        },
        {
          "internalType": "bool",
          "name": "deductTransferFee",
          "type": "bool"
        },
        {
          "internalType": "address",
          "name": "_account",
          "type": "address"
        }
      ],
      "name": "reflectionFromToken",
      "outputs": [
        {
          "internalType": "uint256",
          "name": "",
          "type": "uint256"
        }
      ],
      "stateMutability": "view",
      "type": "function"
    },
    {
      "inputs": [],
      "name": "renounceOwnership",
      "outputs": [],
      "stateMutability": "nonpayable",
      "type": "function"
    },
    {
      "inputs": [
        {
          "internalType": "address",
          "name": "_dailyAddress",
          "type": "address"
        },
        {
          "internalType": "address",
          "name": "_hourlyAddress",
          "type": "address"
        }
      ],
      "name": "setLotteryAddress",
      "outputs": [],
      "stateMutability": "nonpayable",
      "type": "function"
    },
    {
      "inputs": [
        {
          "internalType": "uint256",
          "name": "_lotteryLimit",
          "type": "uint256"
        }
      ],
      "name": "setLotteryLimit",
      "outputs": [],
      "stateMutability": "nonpayable",
      "type": "function"
    },
    {
      "inputs": [],
      "name": "setLotteryState",
      "outputs": [],
      "stateMutability": "nonpayable",
      "type": "function"
    },
    {
      "inputs": [
        {
          "internalType": "uint256",
          "name": "maxTxPercent",
          "type": "uint256"
        }
      ],
      "name": "setMaxTxPercent",
      "outputs": [],
      "stateMutability": "nonpayable",
      "type": "function"
    },
    {
      "inputs": [
        {
          "internalType": "address",
          "name": "_new",
          "type": "address"
        }
      ],
      "name": "setStakingAddress",
      "outputs": [],
      "stateMutability": "nonpayable",
      "type": "function"
    },
    {
      "inputs": [
        {
          "internalType": "uint256",
          "name": "taxFee",
          "type": "uint256"
        }
      ],
      "name": "setTaxFeePercent",
      "outputs": [],
      "stateMutability": "nonpayable",
      "type": "function"
    },
    {
      "inputs": [],
      "name": "setWinner",
      "outputs": [],
      "stateMutability": "nonpayable",
      "type": "function"
    },
    {
      "inputs": [],
      "name": "stakingMinimum",
      "outputs": [
        {
          "internalType": "uint256",
          "name": "",
          "type": "uint256"
        }
      ],
      "stateMutability": "view",
      "type": "function"
    },
    {
      "inputs": [
        {
          "internalType": "address",
          "name": "_routerAddress",
          "type": "address"
        },
        {
          "internalType": "uint256",
          "name": "tokenAmount",
          "type": "uint256"
        },
        {
          "internalType": "address",
          "name": "_usdtAddress",
          "type": "address"
        }
      ],
      "name": "swapTokensForUSDT",
      "outputs": [],
      "stateMutability": "nonpayable",
      "type": "function"
    },
    {
      "inputs": [],
      "name": "symbol",
      "outputs": [
        {
          "internalType": "string",
          "name": "",
          "type": "string"
        }
      ],
      "stateMutability": "view",
      "type": "function"
    },
    {
      "inputs": [
        {
          "internalType": "uint256",
          "name": "rAmount",
          "type": "uint256"
        }
      ],
      "name": "tokenFromReflection",
      "outputs": [
        {
          "internalType": "uint256",
          "name": "",
          "type": "uint256"
        }
      ],
      "stateMutability": "view",
      "type": "function"
    },
    {
      "inputs": [],
      "name": "totalFees",
      "outputs": [
        {
          "internalType": "uint256",
          "name": "",
          "type": "uint256"
        }
      ],
      "stateMutability": "view",
      "type": "function"
    },
    {
      "inputs": [],
      "name": "totalSupply",
      "outputs": [
        {
          "internalType": "uint256",
          "name": "",
          "type": "uint256"
        }
      ],
      "stateMutability": "view",
      "type": "function"
    },
    {
      "inputs": [
        {
          "internalType": "address",
          "name": "recipient",
          "type": "address"
        },
        {
          "internalType": "uint256",
          "name": "amount",
          "type": "uint256"
        }
      ],
      "name": "transfer",
      "outputs": [
        {
          "internalType": "bool",
          "name": "",
          "type": "bool"
        }
      ],
      "stateMutability": "nonpayable",
      "type": "function"
    },
    {
      "inputs": [
        {
          "internalType": "address",
          "name": "sender",
          "type": "address"
        },
        {
          "internalType": "address",
          "name": "recipient",
          "type": "address"
        },
        {
          "internalType": "uint256",
          "name": "amount",
          "type": "uint256"
        }
      ],
      "name": "transferFrom",
      "outputs": [
        {
          "internalType": "bool",
          "name": "",
          "type": "bool"
        }
      ],
      "stateMutability": "nonpayable",
      "type": "function"
    },
    {
      "inputs": [
        {
          "internalType": "address",
          "name": "newOwner",
          "type": "address"
        }
      ],
      "name": "transferOwnership",
      "outputs": [],
      "stateMutability": "nonpayable",
      "type": "function"
    },
    {
      "inputs": [],
      "name": "uinswapV2Pair",
      "outputs": [
        {
          "internalType": "address",
          "name": "",
          "type": "address"
        }
      ],
      "stateMutability": "view",
      "type": "function"
    },
    {
      "inputs": [],
      "name": "uniswapV2Router",
      "outputs": [
        {
          "internalType": "contract IUniswapV2Router02",
          "name": "",
          "type": "address"
        }
      ],
      "stateMutability": "view",
      "type": "function"
    },
    {
      "inputs": [],
      "name": "usdtAddress",
      "outputs": [
        {
          "internalType": "address",
          "name": "",
          "type": "address"
        }
      ],
      "stateMutability": "view",
      "type": "function"
    }
  ],
  "bytecode": "0x60c060405260076080819052664f64696e65756d60c81b60a090815262000028919081620002e1565b506040805180820190915260048082526327a224a760e11b60209092019182526200005691600891620002e1565b506009805460ff191660129081179091556200007490600a6200046e565b6200008490633b9aca006200052d565b600c8190556200009790600019620005a6565b620000a5906000196200054f565b600d556000600f556101f460108190556011819055610320601281905560135561012c60148190556015819055601682905560178290556040805160c081018252603281526064602082015260969181019190915260c86060820152608081019190915260a08101919091526200012190601890600662000370565b50601880546200013491601991620003b4565b506200017360646200015f6103e86200015f6001600c546200026c60201b62001a321790919060201c565b6200028360201b62001a3e1790919060201c565b601a556064601b819055601c556019601d55604b601e556009546200019d9060ff16600a6200046e565b620001ad906301312d006200052d565b601f55602080546001600160a01b03191673bda2e26669eb6db2a460a9018b16495bcccf6f0a179055600954620001e99060ff16600a6200046e565b620001f890620f42406200052d565b6023556009546200020e9060ff16600a6200046e565b6200021c906127106200052d565b602455600954620002329060ff16600a6200046e565b62000240906127106200052d565b6025556026805460ff191690553480156200025a57600080fd5b50620002663362000291565b620005e9565b60006200027a82846200052d565b90505b92915050565b60006200027a82846200040e565b600080546001600160a01b038381166001600160a01b0319831681178455604051919092169283917f8be0079c531659141344cd1fd0a4f28419497f9722a3daafe3b4186f6b6457e09190a35050565b828054620002ef9062000569565b90600052602060002090601f0160209004810192826200031357600085556200035e565b82601f106200032e57805160ff19168380011785556200035e565b828001600101855582156200035e579182015b828111156200035e57825182559160200191906001019062000341565b506200036c929150620003f7565b5090565b8280548282559060005260206000209081019282156200035e579160200282015b828111156200035e578251829061ffff1690559160200191906001019062000391565b8280548282559060005260206000209081019282156200035e5760005260206000209182015b828111156200035e578254825591600101919060010190620003da565b5b808211156200036c5760008155600101620003f8565b600082620004205762000420620005d3565b500490565b600181815b80851115620004665781600019048211156200044a576200044a620005bd565b808516156200045857918102915b93841c93908002906200042a565b509250929050565b60006200027a60ff8416836000826200048a575060016200027d565b8162000499575060006200027d565b8160018114620004b25760028114620004bd57620004dd565b60019150506200027d565b60ff841115620004d157620004d1620005bd565b50506001821b6200027d565b5060208310610133831016604e8410600b841016171562000502575081810a6200027d565b6200050e838362000425565b8060001904821115620005255762000525620005bd565b029392505050565b60008160001904831182151516156200054a576200054a620005bd565b500290565b600082821015620005645762000564620005bd565b500390565b600181811c908216806200057e57607f821691505b60208210811415620005a057634e487b7160e01b600052602260045260246000fd5b50919050565b600082620005b857620005b8620005d3565b500690565b634e487b7160e01b600052601160045260246000fd5b634e487b7160e01b600052601260045260246000fd5b61373280620005f96000396000f3fe608060405234801561001057600080fd5b50600436106103785760003560e01c80635dacf9a3116101d3578063a457c2d711610104578063dd62ed3e116100a2578063ed05084e1161007c578063ed05084e1461073f578063f2fde38b14610747578063f4e0d9ac1461075a578063f7013ef61461076d57600080fd5b8063dd62ed3e146106eb578063ea2f0b3714610724578063ecf501351461073757600080fd5b8063b120200a116100de578063b120200a146106a9578063c0371236146106bc578063ce03d3df146106c5578063d543dbeb146106d857600080fd5b8063a457c2d71461067a578063a9059cbb1461068d578063ae850281146106a057600080fd5b806388f820201161017157806395d89b411161014b57806395d89b41146106435780639ab4a4451461064b5780639d88f3a11461065e578063a400fc211461067157600080fd5b806388f82020146105f35780638a2d81a71461061f5780638da5cb5b1461063257600080fd5b806370a08231116101ad57806370a08231146105bc578063715018a6146105cf5780637867a1c2146105d75780637d1db4a5146105ea57600080fd5b80635dacf9a3146105935780636b2d7a1a1461059c5780636cd8ceb5146105af57600080fd5b8063305bfa8c116102ad578063437823ec1161024b57806352dc21d71161022557806352dc21d7146105425780635342acb41461054b57806355587da9146105775780635be7aad61461058a57600080fd5b8063437823ec1461051357806351fde4bb1461052657806352390c021461052f57600080fd5b80633685d419116102875780633685d419146104d157806339509351146104e45780633b124fe7146104f75780634129b2c91461050057600080fd5b8063305bfa8c146104aa578063313ce567146104b357806333fddf9a146104c857600080fd5b806318160ddd1161031a5780631db8d714116102f45780631db8d7141461045e57806323b872dd146104715780632d838119146104845780632ffcd37b1461049757600080fd5b806318160ddd1461042b5780631a2d66c2146104335780631a6d76171461044657600080fd5b80630e9ed68b116103565780630e9ed68b146103d357806313114a9d146103f857806314eeb8871461040a5780631694505e1461041357600080fd5b8063061c82d01461037d57806306fdde0314610392578063095ea7b3146103b0575b600080fd5b61039061038b366004613342565b610780565b005b61039a6107b8565b6040516103a791906133d9565b60405180910390f35b6103c36103be3660046132b7565b61084a565b60405190151581526020016103a7565b6022546001600160a01b03165b6040516001600160a01b0390911681526020016103a7565b600e545b6040519081526020016103a7565b6103fc60255481565b6009546103e09061010090046001600160a01b031681565b600c546103fc565b6028546103e0906001600160a01b031681565b6026546103e09061010090046001600160a01b031681565b602b546103e0906001600160a01b031681565b6103c361047f366004613276565b610861565b6103fc610492366004613342565b61093a565b6027546103e0906001600160a01b031681565b6103fc60245481565b60095460405160ff90911681526020016103a7565b6103fc601e5481565b6103906104df36600461319f565b6109b7565b6103c36104f23660046132b7565b610b6e565b6103fc60125481565b6103e061050e366004613342565b610ba4565b61039061052136600461319f565b610e3d565b6103fc60105481565b61039061053d36600461319f565b610e8b565b6103fc601b5481565b6103c361055936600461319f565b6001600160a01b031660009081526004602052604090205460ff1690565b600a546103e0906001600160a01b031681565b6103fc601d5481565b6103fc60235481565b6103906105aa366004613342565b610fde565b6026546103c39060ff1681565b6103fc6105ca36600461319f565b61100d565b61039061106c565b6103906105e536600461319f565b6110a2565b6103fc601f5481565b6103c361060136600461319f565b6001600160a01b031660009081526005602052604090205460ff1690565b61039061062d3660046132e3565b6112d9565b6000546001600160a01b03166103e0565b61039a6113c7565b600b546103e0906001600160a01b031681565b61039061066c3660046131d9565b6113d6565b6103fc60295481565b6103c36106883660046132b7565b611438565b6103c361069b3660046132b7565b611487565b6103fc60165481565b6103fc6106b7366004613374565b611494565b6103fc60145481565b6103fc6106d3366004613342565b611520565b6103906106e6366004613342565b611541565b6103fc6106f93660046131d9565b6001600160a01b03918216600090815260036020908152604080832093909416825291909152205490565b61039061073236600461319f565b61158b565b6103906115d6565b610390611614565b61039061075536600461319f565b6116a8565b61039061076836600461319f565b611743565b61039061077b366004613212565b61178f565b6000546001600160a01b031633146107b35760405162461bcd60e51b81526004016107aa9061347c565b60405180910390fd5b601255565b6060600780546107c7906135ca565b80601f01602080910402602001604051908101604052809291908181526020018280546107f3906135ca565b80156108405780601f1061081557610100808354040283529160200191610840565b820191906000526020600020905b81548152906001019060200180831161082357829003601f168201915b5050505050905090565b6000610857338484611a4a565b5060015b92915050565b60006064600c5460026108749190613594565b61087e9190613580565b826108888561100d565b6108929190613568565b11156108d25760405162461bcd60e51b815260206004820152600f60248201526e13dd995c999b1bddc8185b5bdd5b9d608a1b60448201526064016107aa565b6108dd848484611b6e565b61092f843361092a856040518060600160405280602881526020016136b0602891396001600160a01b038a1660009081526003602090815260408083203384529091529020549190611e5f565b611a4a565b5060015b9392505050565b6000600d548211156109a15760405162461bcd60e51b815260206004820152602a60248201527f416d6f756e74206d757374206265206c657373207468616e20746f74616c207260448201526965666c656374696f6e7360b01b60648201526084016107aa565b60006109ab611e8b565b90506109338382611a3e565b6000546001600160a01b031633146109e15760405162461bcd60e51b81526004016107aa9061347c565b6001600160a01b03811660009081526005602052604090205460ff16610a495760405162461bcd60e51b815260206004820152601b60248201527f4163636f756e7420697320616c7265616479206578636c75646564000000000060448201526064016107aa565b60005b600654811015610b6a57816001600160a01b031660068281548110610a7357610a73613676565b6000918252602090912001546001600160a01b03161415610b585760068054610a9e906001906135b3565b81548110610aae57610aae613676565b600091825260209091200154600680546001600160a01b039092169183908110610ada57610ada613676565b600091825260208083209190910180546001600160a01b0319166001600160a01b039485161790559184168152600282526040808220829055600590925220805460ff191690556006805480610b3257610b32613660565b600082815260209020810160001990810180546001600160a01b03191690550190555050565b80610b6281613605565b915050610a4c565b5050565b3360008181526003602090815260408083206001600160a01b0387168452909152812054909161085791859061092a9086611eae565b60265460009060ff1615610bef5760405162461bcd60e51b81526020600482015260126024820152712637ba3a32b93c9034b9903830bab9b2b21760711b60448201526064016107aa565b60265461010090046001600160a01b0316331480610c1757506027546001600160a01b031633145b610c335760405162461bcd60e51b81526004016107aa906134b1565b602854604080516318160ddd60e01b815290516000926001600160a01b0316916318160ddd916004808301926020929190829003018186803b158015610c7857600080fd5b505afa158015610c8c573d6000803e3d6000fd5b505050506040513d601f19601f82011682018060405250810190610cb0919061335b565b905060018111610d105760405162461bcd60e51b815260206004820152602560248201527f486f6c6465727320617265206e6f7420656e6f75676820746f2072756e206c6f604482015264747465727960d81b60648201526084016107aa565b6000610d1d6001836135b3565b90506000610db182602b60009054906101000a90046001600160a01b03166001600160a01b031663ce10b1fb6040518163ffffffff1660e01b815260040160206040518083038186803b158015610d7357600080fd5b505afa158015610d87573d6000803e3d6000fd5b505050506040513d601f19601f82011682018060405250810190610dab919061335b565b90611eba565b6028546040516331a9108f60e11b8152600481018390529192506000916001600160a01b0390911690636352211e9060240160206040518083038186803b158015610dfb57600080fd5b505afa158015610e0f573d6000803e3d6000fd5b505050506040513d601f19601f82011682018060405250810190610e3391906131bc565b9695505050505050565b6000546001600160a01b03163314610e675760405162461bcd60e51b81526004016107aa9061347c565b6001600160a01b03166000908152600460205260409020805460ff19166001179055565b6000546001600160a01b03163314610eb55760405162461bcd60e51b81526004016107aa9061347c565b6001600160a01b03811660009081526005602052604090205460ff1615610f1e5760405162461bcd60e51b815260206004820152601b60248201527f4163636f756e7420697320616c7265616479206578636c75646564000000000060448201526064016107aa565b6001600160a01b03811660009081526001602052604090205415610f78576001600160a01b038116600090815260016020526040902054610f5e9061093a565b6001600160a01b0382166000908152600260205260409020555b6001600160a01b03166000818152600560205260408120805460ff191660019081179091556006805491820181559091527ff652222313e28459528d920b65115c16c04f3efc82aaedc97be59f3f377c0d3f0180546001600160a01b0319169091179055565b6000546001600160a01b031633146110085760405162461bcd60e51b81526004016107aa9061347c565b602355565b6001600160a01b03811660009081526005602052604081205460ff161561104a57506001600160a01b031660009081526002602052604090205490565b6001600160a01b03821660009081526001602052604090205461085b9061093a565b6000546001600160a01b031633146110965760405162461bcd60e51b81526004016107aa9061347c565b6110a06000611ec6565b565b60265460ff16156110ea5760405162461bcd60e51b81526020600482015260126024820152712637ba3a32b93c9034b9903830bab9b2b21760711b60448201526064016107aa565b60265461010090046001600160a01b031633148061111257506027546001600160a01b031633145b61112e5760405162461bcd60e51b81526004016107aa906134b1565b60235461113a8261100d565b101561119f5760405162461bcd60e51b815260206004820152602e60248201527f43616e206e6f7420626520612077696e6e65722066726f6d207468652065666660448201526d696369656e742062616c616e636560901b60648201526084016107aa565b6000806111ab3061100d565b60285460405163df61108360e01b81526001600160a01b0386811660048301529293506000929091169063df6110839060240160206040518083038186803b1580156111f657600080fd5b505afa15801561120a573d6000803e3d6000fd5b505050506040513d601f19601f8201168201806040525081019061122e919061335b565b905080158061123d5750600681115b156112485750505050565b600060186112576001846135b3565b8154811061126757611267613676565b600091825260209091200154601d546026549192509061010090046001600160a01b0316336001600160a01b031614156112a05750601e545b6112c26305f5e1006112bc836112b68887611a32565b90611a32565b90611a3e565b94506112d13087876001611f16565b505050505050565b604080516002808252606082018352600092602083019080368337019050509050308160008151811061130e5761130e613676565b60200260200101906001600160a01b031690816001600160a01b031681525050818160018151811061134257611342613676565b6001600160a01b039283166020918202929092010152600954604051635c11d79560e01b815261010090910490911690635c11d7959061138f9086906000908690309042906004016134f7565b600060405180830381600087803b1580156113a957600080fd5b505af11580156113bd573d6000803e3d6000fd5b5050505050505050565b6060600880546107c7906135ca565b6000546001600160a01b031633146114005760405162461bcd60e51b81526004016107aa9061347c565b60268054610100600160a81b0319166101006001600160a01b0394851602179055602780546001600160a01b03191691909216179055565b6000610857338461092a856040518060600160405280602581526020016136d8602591393360009081526003602090815260408083206001600160a01b038d1684529091529020549190611e5f565b6000610857338484611b6e565b6000600c548411156114e85760405162461bcd60e51b815260206004820152601f60248201527f416d6f756e74206d757374206265206c657373207468616e20737570706c790060448201526064016107aa565b6114f06130ae565b83611509576114ff8584612084565b5191506109339050565b6115138584612084565b6020015191506109339050565b6018818154811061153057600080fd5b600091825260209091200154905081565b6000546001600160a01b0316331461156b5760405162461bcd60e51b81526004016107aa9061347c565b61158560646112bc83600c54611a3290919063ffffffff16565b601f5550565b6000546001600160a01b031633146115b55760405162461bcd60e51b81526004016107aa9061347c565b6001600160a01b03166000908152600460205260409020805460ff19169055565b6000546001600160a01b031633146116005760405162461bcd60e51b81526004016107aa9061347c565b6026805460ff19811660ff90911615179055565b6000546001600160a01b0316331461163e5760405162461bcd60e51b81526004016107aa9061347c565b602b60009054906101000a90046001600160a01b03166001600160a01b031663e0c862896040518163ffffffff1660e01b8152600401600060405180830381600087803b15801561168e57600080fd5b505af11580156116a2573d6000803e3d6000fd5b50505050565b6000546001600160a01b031633146116d25760405162461bcd60e51b81526004016107aa9061347c565b6001600160a01b0381166117375760405162461bcd60e51b815260206004820152602660248201527f4f776e61626c653a206e6577206f776e657220697320746865207a65726f206160448201526564647265737360d01b60648201526084016107aa565b61174081611ec6565b50565b6000546001600160a01b0316331461176d5760405162461bcd60e51b81526004016107aa9061347c565b602280546001600160a01b0319166001600160a01b0392909216919091179055565b600061179b6001612108565b905080156117b7576000805460ff60a81b1916600160a81b1790555b8142106117c357600080fd5b6029829055602880546001600160a01b038089166001600160a01b031992831617909255600b805487841692169190911790556040805163c45a015560e01b81529051879283169163c45a0155916004808301926020929190829003018186803b15801561183057600080fd5b505afa158015611844573d6000803e3d6000fd5b505050506040513d601f19601f8201168201806040525081019061186891906131bc565b600b546040516364e329cb60e11b81523060048201526001600160a01b03918216602482015291169063c9c6539690604401602060405180830381600087803b1580156118b457600080fd5b505af11580156118c8573d6000803e3d6000fd5b505050506040513d601f19601f820116820180604052508101906118ec91906131bc565b600a80546001600160a01b03199081166001600160a01b039384161790915560098054610100600160a81b03191661010085851602179055600d54336000818152600160208181526040808420959095558054602180548816918916918217815590845260028252858420849055548716835281815284832083905582548716835260048152848320805460ff1990811684179091553084528584208054909116909217909155602a8054968b1696861687179055602b8054909516909517909355600c549151918252927fddf252ad1be2c89b69c2b068fc378daa952ba7f163c4a11628f55a4df523b3ef910160405180910390a35080156112d1576000805460ff60a81b19169055604051600181527f7f26b83ff96e1f2b6a682f133852f6798a09c465da95921460cefb38474024989060200160405180910390a1505050505050565b60006109338284613594565b60006109338284613580565b6001600160a01b038316611aac5760405162461bcd60e51b8152602060048201526024808201527f45524332303a20617070726f76652066726f6d20746865207a65726f206164646044820152637265737360e01b60648201526084016107aa565b6001600160a01b038216611b0d5760405162461bcd60e51b815260206004820152602260248201527f45524332303a20617070726f766520746f20746865207a65726f206164647265604482015261737360f01b60648201526084016107aa565b6001600160a01b0383811660008181526003602090815260408083209487168084529482529182902085905590518481527f8c5be1e5ebec7d5bd14f71427d1e84f3dd0314c0f7b2291e5b200ac8c7c3b925910160405180910390a3505050565b6001600160a01b038316611bd25760405162461bcd60e51b815260206004820152602560248201527f45524332303a207472616e736665722066726f6d20746865207a65726f206164604482015264647265737360d81b60648201526084016107aa565b6001600160a01b038216611c345760405162461bcd60e51b815260206004820152602360248201527f45524332303a207472616e7366657220746f20746865207a65726f206164647260448201526265737360e81b60648201526084016107aa565b60008111611c965760405162461bcd60e51b815260206004820152602960248201527f5472616e7366657220616d6f756e74206d7573742062652067726561746572206044820152687468616e207a65726f60b81b60648201526084016107aa565b6000546001600160a01b03848116911614801590611cc257506000546001600160a01b03838116911614155b15611d2a57601f54811115611d2a5760405162461bcd60e51b815260206004820152602860248201527f5472616e7366657220616d6f756e74206578636565647320746865206d6178546044820152673c20b6b7bab73a1760c11b60648201526084016107aa565b6029544211611dfe576028546040516370a0823160e01b81526001600160a01b03848116600483015260009216906370a082319060240160206040518083038186803b158015611d7957600080fd5b505afa158015611d8d573d6000803e3d6000fd5b505050506040513d601f19601f82011682018060405250810190611db1919061335b565b11611dfe5760405162461bcd60e51b815260206004820181905260248201527f52656365697069656e74206d7573742062652061204e465420686f6c6465722e60448201526064016107aa565b611e0883836121a3565b6001600160a01b03831660009081526004602052604090205460019060ff1680611e4a57506001600160a01b03831660009081526004602052604090205460ff165b15611e53575060005b6116a284848484611f16565b60008184841115611e835760405162461bcd60e51b81526004016107aa91906133d9565b505050900390565b6000806000611e98612221565b9092509050611ea78282611a3e565b9250505090565b60006109338284613568565b60006109338284613620565b600080546001600160a01b038381166001600160a01b0319831681178455604051919092169283917f8be0079c531659141344cd1fd0a4f28419497f9722a3daafe3b4186f6b6457e09190a35050565b80611f2357611f236123a3565b6001600160a01b03841660009081526005602052604090205460ff168015611f6457506001600160a01b03831660009081526005602052604090205460ff16155b15611f7957611f74848484612437565b612077565b6001600160a01b03841660009081526005602052604090205460ff16158015611fba57506001600160a01b03831660009081526005602052604090205460ff165b15611fca57611f7484848461257d565b6001600160a01b03841660009081526005602052604090205460ff1615801561200c57506001600160a01b03831660009081526005602052604090205460ff16155b1561201c57611f74848484612622565b6001600160a01b03841660009081526005602052604090205460ff16801561205c57506001600160a01b03831660009081526005602052604090205460ff165b1561206c57611f74848484612656565b612077848484612622565b806116a2576116a2612772565b61208c6130ae565b600080600080600061209e88886127a3565b945094509450945094506000806000806120bb8c8989898961280d565b6040805161012081018252948552602085019390935291830152606082015260808101999099525050505060a085019390935260c084019190915260e08301526101008201529392505050565b60008054600160a81b900460ff1615612151578160ff16600114801561212d5750303b155b6121495760405162461bcd60e51b81526004016107aa9061342e565b506000919050565b60005460ff808416600160a01b909204161061217f5760405162461bcd60e51b81526004016107aa9061342e565b506000805460ff909216600160a01b0260ff60a01b19909216919091179055600190565b60006121ae3061100d565b9050601f5481106121be5750601f545b601a54811080159081906121e05750600a546001600160a01b03858116911614155b801561220e57506001600160a01b0384163014801561220c5750600a546001600160a01b038481169116145b155b156116a257601a5491506116a282612895565b600d54600c546000918291825b6006548110156123735782600160006006848154811061225057612250613676565b60009182526020808320909101546001600160a01b0316835282019290925260400190205411806122bb575081600260006006848154811061229457612294613676565b60009182526020808320909101546001600160a01b03168352820192909252604001902054115b156122d157600d54600c54945094505050509091565b61231760016000600684815481106122eb576122eb613676565b60009182526020808320909101546001600160a01b031683528201929092526040019020548490612a94565b925061235f600260006006848154811061233357612333613676565b60009182526020808320909101546001600160a01b031683528201929092526040019020548390612a94565b91508061236b81613605565b91505061222e565b50600c54600d5461238391611a3e565b82101561239a57600d54600c549350935050509091565b90939092509050565b6012546123ac57565b601054601155601254601355601454601555601880546123ce916019916130fa565b50601b54601c55601680546017556000601081905560128190556014819055908190556040805160c08101825282815260208101839052908101829052606081018290526080810182905260a081019190915261242f90601890600661314a565b506000601b55565b60006124438284612084565b6001600160a01b0385166000908152600260205260409020549091506124699083612a94565b6001600160a01b038516600090815260026020908152604080832093909355835160019091529190205461249c91612a94565b6001600160a01b03808616600090815260016020908152604080832094909455840151918616815291909120546124d291611eae565b6001600160a01b03841660009081526001602052604090205560c08101516124f990612aa0565b6125068160e00151612acd565b61251881604001518260a00151612cd7565b612526816101000151612cfb565b826001600160a01b0316846001600160a01b03167fddf252ad1be2c89b69c2b068fc378daa952ba7f163c4a11628f55a4df523b3ef836080015160405161256f91815260200190565b60405180910390a350505050565b60006125898284612084565b80516001600160a01b0386166000908152600160205260409020549192506125b19190612a94565b6001600160a01b03808616600090815260016020908152604080832094909455608085015192871682526002905291909120546125ed91611eae565b6001600160a01b038416600090815260026020908152604080832093909355838101516001909152919020546124d291611eae565b600061262e8284612084565b80516001600160a01b03861660009081526001602052604090205491925061249c9190612a94565b60006126628284612084565b6001600160a01b0385166000908152600260205260409020549091506126889083612a94565b6001600160a01b03851660009081526002602090815260408083209390935583516001909152919020546126bb91612a94565b6001600160a01b03808616600090815260016020908152604080832094909455608085015192871682526002905291909120546126f791611eae565b6001600160a01b0384166000908152600260209081526040808320939093558381015160019091529190205461272c91611eae565b6001600160a01b03841660009081526001602052604090205560c081015161275390612aa0565b6127608160e00151612acd565b61252681604001518260a00151612cd7565b6011546010556013546012556015546014556017546016556019805461279a916018916130fa565b50601c54601b55565b60008080808086816127b482612eb7565b905060006127c18a612ed4565b905060006127cf8b8b612ef1565b905060006127dc8c612fb8565b905060006127f8826127f2858188818c8c612a94565b90612a94565b9d949c50929a50909850965090945050505050565b600080600080600061281d611e8b565b9050600061282b8b83611a32565b905060006128398b84611a32565b905060006128478b85611a32565b905060006128558b86611a32565b905060006128638b87611a32565b90506000612879826127f2858188818c8c612a94565b959a509498509296509194505050505095509550955095915050565b60006128a2826002611a3e565b905060006128b560026112bc8585612a94565b905060006128c38483612a94565b905060006128d18484611eae565b600b546040516370a0823160e01b81523060048201529192506000916001600160a01b03909116906370a082319060240160206040518083038186803b15801561291a57600080fd5b505afa15801561292e573d6000803e3d6000fd5b505050506040513d601f19601f82011682018060405250810190612952919061335b565b600954600b54919250612978916001600160a01b036101009092048216918591166112d9565b600b546040516370a0823160e01b81523060048201526000916129fb9184916001600160a01b0316906370a08231906024015b60206040518083038186803b1580156129c357600080fd5b505afa1580156129d7573d6000803e3d6000fd5b505050506040513d601f19601f820116820180604052508101906127f2919061335b565b90506000612a0a826003611a3e565b600954909150612a49906001600160a01b0361010090910416612a356000546001600160a01b031690565b600b5488906001600160a01b031685612fd5565b60408051878152602081018490529081018690527f17bbfb9a6069321b6ded73bd96327c9e6b7212a5cd51ff219cd61370acafb5619060600160405180910390a15050505050505050565b600061093382846135b3565b600f54612aad9082611eae565b600f819055601a541161174057612ac5600f54612895565b6000600f5550565b6000612ad7611e8b565b90506000612ae58383611a32565b6021546001600160a01b0316600090815260016020526040902054909150612b0d9082611eae565b6021546001600160a01b0390811660009081526001602052604080822093909355600b5492516370a0823160e01b81523060048201529092909116906370a082319060240160206040518083038186803b158015612b6a57600080fd5b505afa158015612b7e573d6000803e3d6000fd5b505050506040513d601f19601f82011682018060405250810190612ba2919061335b565b6024546021546001600160a01b0316600090815260016020526040902054919250116116a2576009546021546001600160a01b03908116600090815260016020526040902054600b54612bfd936101009004831692166112d9565b600b546040516370a0823160e01b8152306004820152600091612c349184916001600160a01b0316906370a08231906024016129ab565b602180546001600160a01b0390811660009081526001602052604080822091909155600b549254905163a9059cbb60e01b8152908216600482015260248101849052929350169063a9059cbb906044015b602060405180830381600087803b158015612c9f57600080fd5b505af1158015612cb3573d6000803e3d6000fd5b505050506040513d601f19601f820116820180604052508101906112d19190613325565b600d54612ce49083612a94565b600d55600e54612cf49082611eae565b600e555050565b6000612d05611e8b565b90506000612d138383611a32565b6022546001600160a01b0316600090815260016020526040902054909150612d3b9082611eae565b6022546001600160a01b0390811660009081526001602052604080822093909355600b5492516370a0823160e01b81523060048201529092909116906370a082319060240160206040518083038186803b158015612d9857600080fd5b505afa158015612dac573d6000803e3d6000fd5b505050506040513d601f19601f82011682018060405250810190612dd0919061335b565b6025546022546001600160a01b0316600090815260016020526040902054919250116116a2576009546022546001600160a01b03908116600090815260016020526040902054600b54612e2b936101009004831692166112d9565b600b546040516370a0823160e01b8152306004820152600091612e629184916001600160a01b0316906370a08231906024016129ab565b602280546001600160a01b0390811660009081526001602052604080822091909155600b549254905163a9059cbb60e01b8152908216600482015260248101849052929350169063a9059cbb90604401612c85565b600061085b6127106112bc60105485611a3290919063ffffffff16565b600061085b6127106112bc601b5485611a3290919063ffffffff16565b6028546040516370a0823160e01b81526001600160a01b03838116600483015260009283929116906370a082319060240160206040518083038186803b158015612f3a57600080fd5b505afa158015612f4e573d6000803e3d6000fd5b505050506040513d601f19601f82011682018060405250810190612f72919061335b565b90508015612f9d57612f956127106112bc60145487611a3290919063ffffffff16565b91505061085b565b612f956127106112bc60125487611a3290919063ffffffff16565b600061085b6127106112bc60165485611a3290919063ffffffff16565b60095461010090046001600160a01b031663e8e33700308486856000808b612fff42610168613568565b60405160e08a901b6001600160e01b03191681526001600160a01b039889166004820152968816602488015260448701959095526064860193909352608485019190915260a484015290921660c482015260e481019190915261010401606060405180830381600087803b15801561307657600080fd5b505af115801561308a573d6000803e3d6000fd5b505050506040513d601f19601f820116820180604052508101906113bd91906133ab565b6040518061012001604052806000815260200160008152602001600081526020016000815260200160008152602001600081526020016000815260200160008152602001600081525090565b82805482825590600052602060002090810192821561313a5760005260206000209182015b8281111561313a57825482559160010191906001019061311f565b5061314692915061318a565b5090565b82805482825590600052602060002090810192821561313a579160200282015b8281111561313a578251829060ff1690559160200191906001019061316a565b5b80821115613146576000815560010161318b565b6000602082840312156131b157600080fd5b81356109338161368c565b6000602082840312156131ce57600080fd5b81516109338161368c565b600080604083850312156131ec57600080fd5b82356131f78161368c565b915060208301356132078161368c565b809150509250929050565b600080600080600060a0868803121561322a57600080fd5b85356132358161368c565b945060208601356132458161368c565b935060408601356132558161368c565b925060608601356132658161368c565b949793965091946080013592915050565b60008060006060848603121561328b57600080fd5b83356132968161368c565b925060208401356132a68161368c565b929592945050506040919091013590565b600080604083850312156132ca57600080fd5b82356132d58161368c565b946020939093013593505050565b6000806000606084860312156132f857600080fd5b83356133038161368c565b925060208401359150604084013561331a8161368c565b809150509250925092565b60006020828403121561333757600080fd5b8151610933816136a1565b60006020828403121561335457600080fd5b5035919050565b60006020828403121561336d57600080fd5b5051919050565b60008060006060848603121561338957600080fd5b83359250602084013561339b816136a1565b9150604084013561331a8161368c565b6000806000606084860312156133c057600080fd5b8351925060208401519150604084015190509250925092565b600060208083528351808285015260005b81811015613406578581018301518582016040015282016133ea565b81811115613418576000604083870101525b50601f01601f1916929092016040019392505050565b6020808252602e908201527f496e697469616c697a61626c653a20636f6e747261637420697320616c72656160408201526d191e481a5b9a5d1a585b1a5e995960921b606082015260800190565b6020808252818101527f4f776e61626c653a2063616c6c6572206973206e6f7420746865206f776e6572604082015260600190565b60208082526026908201527f43616e206f6e6c792062652063616c6c6564206279206c6f747465727920636f6040820152651b9d1c9858dd60d21b606082015260800190565b600060a082018783526020878185015260a0604085015281875180845260c086019150828901935060005b818110156135475784516001600160a01b031683529383019391830191600101613522565b50506001600160a01b03969096166060850152505050608001529392505050565b6000821982111561357b5761357b613634565b500190565b60008261358f5761358f61364a565b500490565b60008160001904831182151516156135ae576135ae613634565b500290565b6000828210156135c5576135c5613634565b500390565b600181811c908216806135de57607f821691505b602082108114156135ff57634e487b7160e01b600052602260045260246000fd5b50919050565b600060001982141561361957613619613634565b5060010190565b60008261362f5761362f61364a565b500690565b634e487b7160e01b600052601160045260246000fd5b634e487b7160e01b600052601260045260246000fd5b634e487b7160e01b600052603160045260246000fd5b634e487b7160e01b600052603260045260246000fd5b6001600160a01b038116811461174057600080fd5b801515811461174057600080fdfe45524332303a207472616e7366657220616d6f756e74206578636565647320616c6c6f77616e636545524332303a2064656372656173656420616c6c6f77616e63652062656c6f77207a65726fa2646970667358221220394642f7cf41cd2a8d575039d42eadb5a3aa4a06f15ae0f66b23c187792c772c64736f6c63430008070033",
  "linkReferences": {},
  "deployedLinkReferences": {}
}