{
  "_format": "hh-sol-artifact-1",
  "contractName": "IMediaModified",
  "sourceName": "contracts/OdinMarketplace.sol",
  "abi": [
    {
      "inputs": [],
      "name": "marketContract",
      "outputs": [
        {
          "internalType": "address",
          "name": "",
          "type": "address"
        }
      ],
      "stateMutability": "view",
      "type": "function"
    },
    {
      "inputs": [
        {
          "internalType": "uint256",
          "name": "",
          "type": "uint256"
        }
      ],
      "name": "tokenCreators",
      "outputs": [
        {
          "internalType": "address",
          "name": "",
          "type": "address"
        }
      ],
      "stateMutability": "view",
      "type": "function"
    }
  ],
  "bytecode": "0x608060405234801561001057600080fd5b5060d98061001f6000396000f3fe6080604052348015600f57600080fd5b506004361060325760003560e01c8063a1794bcd146037578063e0fd045f146065575b600080fd5b6001546049906001600160a01b031681565b6040516001600160a01b03909116815260200160405180910390f35b60496070366004608b565b6000602081905290815260409020546001600160a01b031681565b600060208284031215609c57600080fd5b503591905056fea26469706673582212206687fe5f7d896244bacffccd6300217f58511431e6526e33263959f803d5727664736f6c63430008070033",
  "linkReferences": {},
  "deployedLinkReferences": {}
}