{
  "_format": "hh-sol-artifact-1",
  "contractName": "OdinMarketplace",
  "sourceName": "contracts/OdinMarketplace.sol",
  "abi": [
    {
      "anonymous": false,
      "inputs": [
        {
          "indexed": true,
          "internalType": "uint256",
          "name": "tokenId",
          "type": "uint256"
        },
        {
          "indexed": false,
          "internalType": "address",
          "name": "nftContractAddress",
          "type": "address"
        },
        {
          "indexed": false,
          "internalType": "address",
          "name": "sender",
          "type": "address"
        },
        {
          "indexed": false,
          "internalType": "uint256",
          "name": "value",
          "type": "uint256"
        }
      ],
      "name": "AuctionBid",
      "type": "event"
    },
    {
      "anonymous": false,
      "inputs": [
        {
          "indexed": true,
          "internalType": "uint256",
          "name": "tokenId",
          "type": "uint256"
        },
        {
          "indexed": false,
          "internalType": "address",
          "name": "nftContractAddress",
          "type": "address"
        },
        {
          "indexed": false,
          "internalType": "address",
          "name": "Creator",
          "type": "address"
        }
      ],
      "name": "AuctionCanceled",
      "type": "event"
    },
    {
      "anonymous": false,
      "inputs": [
        {
          "indexed": true,
          "internalType": "uint256",
          "name": "tokenId",
          "type": "uint256"
        },
        {
          "indexed": false,
          "internalType": "uint256",
          "name": "auctionStart",
          "type": "uint256"
        },
        {
          "indexed": false,
          "internalType": "uint256",
          "name": "duration",
          "type": "uint256"
        },
        {
          "indexed": false,
          "internalType": "uint256",
          "name": "reservePrice",
          "type": "uint256"
        },
        {
          "indexed": false,
          "internalType": "string",
          "name": "paymentType",
          "type": "string"
        },
        {
          "indexed": false,
          "internalType": "address",
          "name": "Creator",
          "type": "address"
        }
      ],
      "name": "AuctionCreated",
      "type": "event"
    },
    {
      "anonymous": false,
      "inputs": [
        {
          "indexed": true,
          "internalType": "uint256",
          "name": "tokenId",
          "type": "uint256"
        },
        {
          "indexed": false,
          "internalType": "address",
          "name": "nftContractAddress",
          "type": "address"
        },
        {
          "indexed": false,
          "internalType": "address",
          "name": "Creator",
          "type": "address"
        },
        {
          "indexed": false,
          "internalType": "address",
          "name": "winner",
          "type": "address"
        },
        {
          "indexed": false,
          "internalType": "uint256",
          "name": "amount",
          "type": "uint256"
        },
        {
          "indexed": false,
          "internalType": "address",
          "name": "nftCreator",
          "type": "address"
        }
      ],
      "name": "AuctionEnded",
      "type": "event"
    },
    {
      "anonymous": false,
      "inputs": [
        {
          "indexed": false,
          "internalType": "uint256",
          "name": "nftID",
          "type": "uint256"
        }
      ],
      "name": "Burned",
      "type": "event"
    },
    {
      "anonymous": false,
      "inputs": [
        {
          "indexed": true,
          "internalType": "uint256",
          "name": "tokenId",
          "type": "uint256"
        },
        {
          "indexed": false,
          "internalType": "address",
          "name": "Creator",
          "type": "address"
        },
        {
          "indexed": false,
          "internalType": "uint256",
          "name": "amount",
          "type": "uint256"
        }
      ],
      "name": "CreatorFeePercentTransfer",
      "type": "event"
    },
    {
      "anonymous": false,
      "inputs": [
        {
          "indexed": true,
          "internalType": "address",
          "name": "sender",
          "type": "address"
        },
        {
          "indexed": true,
          "internalType": "address",
          "name": "receiver",
          "type": "address"
        },
        {
          "indexed": false,
          "internalType": "uint256",
          "name": "tokenId",
          "type": "uint256"
        }
      ],
      "name": "Giveaway",
      "type": "event"
    },
    {
      "anonymous": false,
      "inputs": [
        {
          "indexed": false,
          "internalType": "uint8",
          "name": "version",
          "type": "uint8"
        }
      ],
      "name": "Initialized",
      "type": "event"
    },
    {
      "anonymous": false,
      "inputs": [
        {
          "indexed": true,
          "internalType": "address",
          "name": "minter",
          "type": "address"
        },
        {
          "indexed": false,
          "internalType": "uint256",
          "name": "nftID",
          "type": "uint256"
        },
        {
          "indexed": false,
          "internalType": "bool",
          "name": "status",
          "type": "bool"
        }
      ],
      "name": "Minted",
      "type": "event"
    },
    {
      "anonymous": false,
      "inputs": [
        {
          "indexed": true,
          "internalType": "address",
          "name": "owner",
          "type": "address"
        },
        {
          "indexed": false,
          "internalType": "uint256",
          "name": "nftID",
          "type": "uint256"
        },
        {
          "indexed": false,
          "internalType": "bool",
          "name": "isListed",
          "type": "bool"
        }
      ],
      "name": "NftListStatus",
      "type": "event"
    },
    {
      "anonymous": false,
      "inputs": [
        {
          "indexed": true,
          "internalType": "address",
          "name": "previousOwner",
          "type": "address"
        },
        {
          "indexed": true,
          "internalType": "address",
          "name": "newOwner",
          "type": "address"
        }
      ],
      "name": "OwnershipTransferred",
      "type": "event"
    },
    {
      "anonymous": false,
      "inputs": [
        {
          "indexed": false,
          "internalType": "address",
          "name": "account",
          "type": "address"
        }
      ],
      "name": "Paused",
      "type": "event"
    },
    {
      "anonymous": false,
      "inputs": [
        {
          "indexed": true,
          "internalType": "address",
          "name": "owner",
          "type": "address"
        },
        {
          "indexed": false,
          "internalType": "uint256",
          "name": "oldPrice",
          "type": "uint256"
        },
        {
          "indexed": false,
          "internalType": "uint256",
          "name": "newPrice",
          "type": "uint256"
        },
        {
          "indexed": false,
          "internalType": "uint256",
          "name": "nftID",
          "type": "uint256"
        }
      ],
      "name": "PriceUpdate",
      "type": "event"
    },
    {
      "anonymous": false,
      "inputs": [
        {
          "indexed": true,
          "internalType": "address",
          "name": "previousOwner",
          "type": "address"
        },
        {
          "indexed": true,
          "internalType": "address",
          "name": "newOwner",
          "type": "address"
        },
        {
          "indexed": false,
          "internalType": "uint256",
          "name": "price",
          "type": "uint256"
        },
        {
          "indexed": false,
          "internalType": "uint256",
          "name": "nftID",
          "type": "uint256"
        }
      ],
      "name": "Purchase",
      "type": "event"
    },
    {
      "anonymous": false,
      "inputs": [
        {
          "indexed": false,
          "internalType": "address",
          "name": "",
          "type": "address"
        },
        {
          "indexed": false,
          "internalType": "uint256",
          "name": "",
          "type": "uint256"
        }
      ],
      "name": "Received",
      "type": "event"
    },
    {
      "anonymous": false,
      "inputs": [
        {
          "indexed": false,
          "internalType": "uint256",
          "name": "amount",
          "type": "uint256"
        },
        {
          "indexed": false,
          "internalType": "address",
          "name": "wallet",
          "type": "address"
        }
      ],
      "name": "TokensWithdrawn",
      "type": "event"
    },
    {
      "anonymous": false,
      "inputs": [
        {
          "indexed": false,
          "internalType": "address",
          "name": "account",
          "type": "address"
        }
      ],
      "name": "Unpaused",
      "type": "event"
    },
    {
      "anonymous": false,
      "inputs": [
        {
          "indexed": false,
          "internalType": "uint256",
          "name": "amount",
          "type": "uint256"
        },
        {
          "indexed": false,
          "internalType": "address",
          "name": "wallet",
          "type": "address"
        }
      ],
      "name": "Withdrawn",
      "type": "event"
    },
    {
      "inputs": [],
      "name": "MIN_BID_INCREMENT_PERCENT",
      "outputs": [
        {
          "internalType": "uint8",
          "name": "",
          "type": "uint8"
        }
      ],
      "stateMutability": "view",
      "type": "function"
    },
    {
      "inputs": [],
      "name": "TIME_BUFFER",
      "outputs": [
        {
          "internalType": "uint16",
          "name": "",
          "type": "uint16"
        }
      ],
      "stateMutability": "view",
      "type": "function"
    },
    {
      "inputs": [
        {
          "internalType": "uint256[]",
          "name": "_newtokenIds",
          "type": "uint256[]"
        },
        {
          "internalType": "address[]",
          "name": "_creators",
          "type": "address[]"
        },
        {
          "internalType": "uint256[]",
          "name": "_prices",
          "type": "uint256[]"
        },
        {
          "internalType": "address[]",
          "name": "_owners",
          "type": "address[]"
        },
        {
          "internalType": "uint256[]",
          "name": "_royalties",
          "type": "uint256[]"
        },
        {
          "internalType": "bool[]",
          "name": "_listedMap",
          "type": "bool[]"
        }
      ],
      "name": "addCreatorMap",
      "outputs": [],
      "stateMutability": "nonpayable",
      "type": "function"
    },
    {
      "inputs": [],
      "name": "adminRecoveryAddress",
      "outputs": [
        {
          "internalType": "address",
          "name": "",
          "type": "address"
        }
      ],
      "stateMutability": "view",
      "type": "function"
    },
    {
      "inputs": [],
      "name": "adminRecoveryEnabled",
      "outputs": [
        {
          "internalType": "bool",
          "name": "",
          "type": "bool"
        }
      ],
      "stateMutability": "view",
      "type": "function"
    },
    {
      "inputs": [
        {
          "internalType": "uint256",
          "name": "",
          "type": "uint256"
        }
      ],
      "name": "auctions",
      "outputs": [
        {
          "internalType": "uint256",
          "name": "amount",
          "type": "uint256"
        },
        {
          "internalType": "uint256",
          "name": "duration",
          "type": "uint256"
        },
        {
          "internalType": "uint256",
          "name": "firstBidTime",
          "type": "uint256"
        },
        {
          "internalType": "uint256",
          "name": "reservePrice",
          "type": "uint256"
        },
        {
          "internalType": "string",
          "name": "paymentType",
          "type": "string"
        },
        {
          "internalType": "uint8",
          "name": "CreatorFeePercent",
          "type": "uint8"
        },
        {
          "internalType": "address",
          "name": "Creator",
          "type": "address"
        },
        {
          "internalType": "address payable",
          "name": "bidder",
          "type": "address"
        },
        {
          "internalType": "address payable",
          "name": "fundsRecipient",
          "type": "address"
        }
      ],
      "stateMutability": "view",
      "type": "function"
    },
    {
      "inputs": [
        {
          "internalType": "uint256",
          "name": "_id",
          "type": "uint256"
        }
      ],
      "name": "burn",
      "outputs": [],
      "stateMutability": "nonpayable",
      "type": "function"
    },
    {
      "inputs": [
        {
          "internalType": "uint256",
          "name": "_id",
          "type": "uint256"
        },
        {
          "internalType": "uint256",
          "name": "_price",
          "type": "uint256"
        },
        {
          "internalType": "string",
          "name": "paymentType",
          "type": "string"
        }
      ],
      "name": "buy",
      "outputs": [],
      "stateMutability": "payable",
      "type": "function"
    },
    {
      "inputs": [
        {
          "internalType": "uint256",
          "name": "tokenId",
          "type": "uint256"
        }
      ],
      "name": "cancelAuction",
      "outputs": [],
      "stateMutability": "nonpayable",
      "type": "function"
    },
    {
      "inputs": [
        {
          "internalType": "uint256",
          "name": "_id",
          "type": "uint256"
        }
      ],
      "name": "closeTrade",
      "outputs": [],
      "stateMutability": "nonpayable",
      "type": "function"
    },
    {
      "inputs": [
        {
          "internalType": "uint256",
          "name": "tokenId",
          "type": "uint256"
        },
        {
          "internalType": "uint256",
          "name": "duration",
          "type": "uint256"
        },
        {
          "internalType": "uint256",
          "name": "reservePrice",
          "type": "uint256"
        },
        {
          "internalType": "string",
          "name": "paymentType",
          "type": "string"
        },
        {
          "internalType": "address",
          "name": "Creator",
          "type": "address"
        }
      ],
      "name": "createAuction",
      "outputs": [],
      "stateMutability": "nonpayable",
      "type": "function"
    },
    {
      "inputs": [
        {
          "internalType": "uint256",
          "name": "tokenId",
          "type": "uint256"
        },
        {
          "internalType": "string",
          "name": "paymentType",
          "type": "string"
        },
        {
          "internalType": "uint256",
          "name": "amount",
          "type": "uint256"
        }
      ],
      "name": "createBid",
      "outputs": [],
      "stateMutability": "payable",
      "type": "function"
    },
    {
      "inputs": [
        {
          "internalType": "uint256",
          "name": "",
          "type": "uint256"
        }
      ],
      "name": "creatorMap",
      "outputs": [
        {
          "internalType": "address",
          "name": "",
          "type": "address"
        }
      ],
      "stateMutability": "view",
      "type": "function"
    },
    {
      "inputs": [],
      "name": "developmentAddress",
      "outputs": [
        {
          "internalType": "address",
          "name": "",
          "type": "address"
        }
      ],
      "stateMutability": "view",
      "type": "function"
    },
    {
      "inputs": [
        {
          "internalType": "uint256",
          "name": "tokenId",
          "type": "uint256"
        }
      ],
      "name": "endAuction",
      "outputs": [],
      "stateMutability": "nonpayable",
      "type": "function"
    },
    {
      "inputs": [
        {
          "internalType": "uint256",
          "name": "_id",
          "type": "uint256"
        }
      ],
      "name": "getIsListed",
      "outputs": [
        {
          "internalType": "bool",
          "name": "",
          "type": "bool"
        }
      ],
      "stateMutability": "view",
      "type": "function"
    },
    {
      "inputs": [
        {
          "internalType": "address",
          "name": "owner",
          "type": "address"
        }
      ],
      "name": "getLimitAmountForPromoter",
      "outputs": [
        {
          "internalType": "uint256",
          "name": "",
          "type": "uint256"
        }
      ],
      "stateMutability": "view",
      "type": "function"
    },
    {
      "inputs": [
        {
          "internalType": "address",
          "name": "owner",
          "type": "address"
        }
      ],
      "name": "getMintAmountForPromoter",
      "outputs": [
        {
          "internalType": "uint256",
          "name": "",
          "type": "uint256"
        }
      ],
      "stateMutability": "view",
      "type": "function"
    },
    {
      "inputs": [
        {
          "internalType": "uint256",
          "name": "_tokenId",
          "type": "uint256"
        }
      ],
      "name": "getSalePrice",
      "outputs": [
        {
          "internalType": "uint256",
          "name": "",
          "type": "uint256"
        }
      ],
      "stateMutability": "view",
      "type": "function"
    },
    {
      "inputs": [
        {
          "internalType": "uint256",
          "name": "_tokenId",
          "type": "uint256"
        }
      ],
      "name": "getTokenPaymentType",
      "outputs": [
        {
          "internalType": "string",
          "name": "",
          "type": "string"
        }
      ],
      "stateMutability": "view",
      "type": "function"
    },
    {
      "inputs": [
        {
          "internalType": "uint256",
          "name": "_tokenId",
          "type": "uint256"
        }
      ],
      "name": "getTokenPrice",
      "outputs": [
        {
          "internalType": "uint256",
          "name": "",
          "type": "uint256"
        }
      ],
      "stateMutability": "view",
      "type": "function"
    },
    {
      "inputs": [],
      "name": "getVersion",
      "outputs": [
        {
          "internalType": "uint256",
          "name": "version",
          "type": "uint256"
        }
      ],
      "stateMutability": "pure",
      "type": "function"
    },
    {
      "inputs": [
        {
          "internalType": "address",
          "name": "_to",
          "type": "address"
        },
        {
          "internalType": "uint256",
          "name": "_id",
          "type": "uint256"
        }
      ],
      "name": "giveaway",
      "outputs": [],
      "stateMutability": "nonpayable",
      "type": "function"
    },
    {
      "inputs": [
        {
          "internalType": "address",
          "name": "nftContract_",
          "type": "address"
        },
        {
          "internalType": "address",
          "name": "adminRecoveryAddress_",
          "type": "address"
        },
        {
          "internalType": "address",
          "name": "bcPaymentAddress_",
          "type": "address"
        },
        {
          "internalType": "address",
          "name": "bcTokenAddress_",
          "type": "address"
        },
        {
          "internalType": "address",
          "name": "developmentAddress_",
          "type": "address"
        }
      ],
      "name": "initialize",
      "outputs": [],
      "stateMutability": "nonpayable",
      "type": "function"
    },
    {
      "inputs": [
        {
          "internalType": "address",
          "name": "owner",
          "type": "address"
        }
      ],
      "name": "isPromoter",
      "outputs": [
        {
          "internalType": "bool",
          "name": "",
          "type": "bool"
        }
      ],
      "stateMutability": "view",
      "type": "function"
    },
    {
      "inputs": [
        {
          "internalType": "address",
          "name": "",
          "type": "address"
        }
      ],
      "name": "limitAmountForPromoter",
      "outputs": [
        {
          "internalType": "uint256",
          "name": "",
          "type": "uint256"
        }
      ],
      "stateMutability": "view",
      "type": "function"
    },
    {
      "inputs": [
        {
          "internalType": "uint256",
          "name": "",
          "type": "uint256"
        }
      ],
      "name": "listedMap",
      "outputs": [
        {
          "internalType": "bool",
          "name": "",
          "type": "bool"
        }
      ],
      "stateMutability": "view",
      "type": "function"
    },
    {
      "inputs": [],
      "name": "marketFeeForBNB",
      "outputs": [
        {
          "internalType": "uint256",
          "name": "",
          "type": "uint256"
        }
      ],
      "stateMutability": "view",
      "type": "function"
    },
    {
      "inputs": [],
      "name": "marketFeeForToken",
      "outputs": [
        {
          "internalType": "uint256",
          "name": "",
          "type": "uint256"
        }
      ],
      "stateMutability": "view",
      "type": "function"
    },
    {
      "inputs": [
        {
          "internalType": "uint256",
          "name": "number",
          "type": "uint256"
        },
        {
          "internalType": "uint256[]",
          "name": "_level",
          "type": "uint256[]"
        }
      ],
      "name": "mint",
      "outputs": [],
      "stateMutability": "payable",
      "type": "function"
    },
    {
      "inputs": [
        {
          "internalType": "address",
          "name": "",
          "type": "address"
        }
      ],
      "name": "mintAmountForPromoter",
      "outputs": [
        {
          "internalType": "uint256",
          "name": "",
          "type": "uint256"
        }
      ],
      "stateMutability": "view",
      "type": "function"
    },
    {
      "inputs": [
        {
          "internalType": "uint256",
          "name": "number",
          "type": "uint256"
        },
        {
          "internalType": "uint256[]",
          "name": "_level",
          "type": "uint256[]"
        }
      ],
      "name": "mintForPromoter",
      "outputs": [],
      "stateMutability": "nonpayable",
      "type": "function"
    },
    {
      "inputs": [],
      "name": "mintPrice",
      "outputs": [
        {
          "internalType": "uint256",
          "name": "",
          "type": "uint256"
        }
      ],
      "stateMutability": "view",
      "type": "function"
    },
    {
      "inputs": [],
      "name": "nftContract",
      "outputs": [
        {
          "internalType": "address",
          "name": "",
          "type": "address"
        }
      ],
      "stateMutability": "view",
      "type": "function"
    },
    {
      "inputs": [
        {
          "internalType": "uint256",
          "name": "_id",
          "type": "uint256"
        },
        {
          "internalType": "uint256",
          "name": "_price",
          "type": "uint256"
        },
        {
          "internalType": "string",
          "name": "paymentType",
          "type": "string"
        }
      ],
      "name": "openTrade",
      "outputs": [],
      "stateMutability": "nonpayable",
      "type": "function"
    },
    {
      "inputs": [],
      "name": "owner",
      "outputs": [
        {
          "internalType": "address",
          "name": "",
          "type": "address"
        }
      ],
      "stateMutability": "view",
      "type": "function"
    },
    {
      "inputs": [
        {
          "internalType": "uint256",
          "name": "",
          "type": "uint256"
        }
      ],
      "name": "ownerMap",
      "outputs": [
        {
          "internalType": "address",
          "name": "",
          "type": "address"
        }
      ],
      "stateMutability": "view",
      "type": "function"
    },
    {
      "inputs": [],
      "name": "pauseContract",
      "outputs": [],
      "stateMutability": "nonpayable",
      "type": "function"
    },
    {
      "inputs": [],
      "name": "paused",
      "outputs": [
        {
          "internalType": "bool",
          "name": "",
          "type": "bool"
        }
      ],
      "stateMutability": "view",
      "type": "function"
    },
    {
      "inputs": [
        {
          "internalType": "uint256",
          "name": "",
          "type": "uint256"
        }
      ],
      "name": "paymentTokenMap",
      "outputs": [
        {
          "internalType": "string",
          "name": "",
          "type": "string"
        }
      ],
      "stateMutability": "view",
      "type": "function"
    },
    {
      "inputs": [
        {
          "internalType": "string",
          "name": "",
          "type": "string"
        }
      ],
      "name": "payoutAddressMap",
      "outputs": [
        {
          "internalType": "address",
          "name": "",
          "type": "address"
        }
      ],
      "stateMutability": "view",
      "type": "function"
    },
    {
      "inputs": [
        {
          "internalType": "uint256",
          "name": "",
          "type": "uint256"
        }
      ],
      "name": "price",
      "outputs": [
        {
          "internalType": "uint256",
          "name": "",
          "type": "uint256"
        }
      ],
      "stateMutability": "view",
      "type": "function"
    },
    {
      "inputs": [
        {
          "internalType": "address",
          "name": "",
          "type": "address"
        }
      ],
      "name": "promoterAddressMap",
      "outputs": [
        {
          "internalType": "bool",
          "name": "",
          "type": "bool"
        }
      ],
      "stateMutability": "view",
      "type": "function"
    },
    {
      "inputs": [
        {
          "internalType": "uint256",
          "name": "amount",
          "type": "uint256"
        }
      ],
      "name": "recoverBNB",
      "outputs": [
        {
          "internalType": "bool",
          "name": "success",
          "type": "bool"
        }
      ],
      "stateMutability": "nonpayable",
      "type": "function"
    },
    {
      "inputs": [
        {
          "internalType": "uint256",
          "name": "tokenId",
          "type": "uint256"
        }
      ],
      "name": "recoverNFT",
      "outputs": [],
      "stateMutability": "nonpayable",
      "type": "function"
    },
    {
      "inputs": [
        {
          "internalType": "address",
          "name": "_new",
          "type": "address"
        },
        {
          "internalType": "uint256",
          "name": "amount",
          "type": "uint256"
        }
      ],
      "name": "registerPromoter",
      "outputs": [],
      "stateMutability": "nonpayable",
      "type": "function"
    },
    {
      "inputs": [],
      "name": "renounceOwnership",
      "outputs": [],
      "stateMutability": "nonpayable",
      "type": "function"
    },
    {
      "inputs": [],
      "name": "royaltyFee",
      "outputs": [
        {
          "internalType": "uint256",
          "name": "",
          "type": "uint256"
        }
      ],
      "stateMutability": "view",
      "type": "function"
    },
    {
      "inputs": [
        {
          "internalType": "uint256",
          "name": "",
          "type": "uint256"
        }
      ],
      "name": "royaltyMap",
      "outputs": [
        {
          "internalType": "uint256",
          "name": "",
          "type": "uint256"
        }
      ],
      "stateMutability": "view",
      "type": "function"
    },
    {
      "inputs": [
        {
          "internalType": "uint256",
          "name": "",
          "type": "uint256"
        }
      ],
      "name": "salePrice",
      "outputs": [
        {
          "internalType": "uint256",
          "name": "",
          "type": "uint256"
        }
      ],
      "stateMutability": "view",
      "type": "function"
    },
    {
      "inputs": [
        {
          "internalType": "uint256",
          "name": "_newMarketFeeForBNB",
          "type": "uint256"
        }
      ],
      "name": "setMarketFeeForBNB",
      "outputs": [],
      "stateMutability": "nonpayable",
      "type": "function"
    },
    {
      "inputs": [
        {
          "internalType": "uint256",
          "name": "_newMarketFeeForToken",
          "type": "uint256"
        }
      ],
      "name": "setMarketFeeForToken",
      "outputs": [],
      "stateMutability": "nonpayable",
      "type": "function"
    },
    {
      "inputs": [
        {
          "internalType": "address",
          "name": "owner",
          "type": "address"
        },
        {
          "internalType": "uint256",
          "name": "amount",
          "type": "uint256"
        }
      ],
      "name": "setMintAmountForPromoter",
      "outputs": [],
      "stateMutability": "nonpayable",
      "type": "function"
    },
    {
      "inputs": [
        {
          "internalType": "string",
          "name": "_paymentToken",
          "type": "string"
        },
        {
          "internalType": "address",
          "name": "_tokenAddress",
          "type": "address"
        },
        {
          "internalType": "address",
          "name": "_payoutAddress",
          "type": "address"
        }
      ],
      "name": "setTokenAddress",
      "outputs": [],
      "stateMutability": "nonpayable",
      "type": "function"
    },
    {
      "inputs": [],
      "name": "stakingPool",
      "outputs": [
        {
          "internalType": "address",
          "name": "",
          "type": "address"
        }
      ],
      "stateMutability": "view",
      "type": "function"
    },
    {
      "inputs": [
        {
          "internalType": "string",
          "name": "",
          "type": "string"
        }
      ],
      "name": "tokenAddressMap",
      "outputs": [
        {
          "internalType": "address",
          "name": "",
          "type": "address"
        }
      ],
      "stateMutability": "view",
      "type": "function"
    },
    {
      "inputs": [
        {
          "internalType": "address",
          "name": "newOwner",
          "type": "address"
        }
      ],
      "name": "transferOwnership",
      "outputs": [],
      "stateMutability": "nonpayable",
      "type": "function"
    },
    {
      "inputs": [],
      "name": "turnOffAdminRecovery",
      "outputs": [],
      "stateMutability": "nonpayable",
      "type": "function"
    },
    {
      "inputs": [],
      "name": "unpauseContract",
      "outputs": [],
      "stateMutability": "nonpayable",
      "type": "function"
    },
    {
      "inputs": [
        {
          "internalType": "address",
          "name": "_new",
          "type": "address"
        }
      ],
      "name": "unregisterPromoter",
      "outputs": [],
      "stateMutability": "nonpayable",
      "type": "function"
    },
    {
      "inputs": [
        {
          "internalType": "uint256",
          "name": "_tokenId",
          "type": "uint256"
        },
        {
          "internalType": "bool",
          "name": "shouldBeListed",
          "type": "bool"
        }
      ],
      "name": "updateListingStatus",
      "outputs": [
        {
          "internalType": "bool",
          "name": "",
          "type": "bool"
        }
      ],
      "stateMutability": "nonpayable",
      "type": "function"
    },
    {
      "inputs": [
        {
          "internalType": "uint256",
          "name": "_tokenId",
          "type": "uint256"
        },
        {
          "internalType": "uint256",
          "name": "_price",
          "type": "uint256"
        },
        {
          "internalType": "string",
          "name": "paymentType",
          "type": "string"
        }
      ],
      "name": "updatePrice",
      "outputs": [
        {
          "internalType": "bool",
          "name": "",
          "type": "bool"
        }
      ],
      "stateMutability": "nonpayable",
      "type": "function"
    },
    {
      "inputs": [],
      "name": "withdraw",
      "outputs": [],
      "stateMutability": "nonpayable",
      "type": "function"
    },
    {
      "inputs": [
        {
          "internalType": "string",
          "name": "_tokenName",
          "type": "string"
        },
        {
          "internalType": "uint256",
          "name": "_amount",
          "type": "uint256"
        }
      ],
      "name": "withdrawToken",
      "outputs": [],
      "stateMutability": "nonpayable",
      "type": "function"
    },
    {
      "stateMutability": "payable",
      "type": "receive"
    }
  ],
  "bytecode": "0x6080604052604660035560466004556005805560056006553480156200002457600080fd5b50600160005562000035336200003b565b6200008d565b600180546001600160a01b038381166001600160a01b0319831681179093556040519116919082907f8be0079c531659141344cd1fd0a4f28419497f9722a3daafe3b4186f6b6457e090600090a35050565b615400806200009d6000396000f3fe6080604052600436106103c75760003560e01c80638da5cb5b116101f2578063ba8a12b41161010d578063d56d229d116100a0578063f603939b1161006f578063f603939b14610c55578063f8eb5fc514610c75578063faa22adb14610ca2578063fafe0d1f14610cd257600080fd5b8063d56d229d14610bc8578063edf85f5114610be8578063f27da5e514610c15578063f2fde38b14610c3557600080fd5b8063c457fb37116100dc578063c457fb3714610b3b578063c97a413a14610b68578063ca1ce2af14610b88578063d10bfeed14610ba857600080fd5b8063ba8a12b414610aa4578063bb7adeb414610ac4578063bc8ba28f14610ae4578063bc99681914610b1457600080fd5b80639a8bfa2b11610185578063b33712c511610154578063b33712c514610a2c578063b35e516114610a41578063b8997a9714610a6e578063b9a2de3a14610a8457600080fd5b80639a8bfa2b14610970578063a39cea84146109a6578063a6e9d546146109c6578063acfa3c67146109f357600080fd5b806396b5a755116101c157806396b5a7551461090857806398214bcb1461092857806398c055911461094857806399331fdf1461095d57600080fd5b80638da5cb5b146108735780639037bab214610891578063941d66db146108a75780639486e0a4146108e857600080fd5b80634c78106f116102e25780636817c76c1161027557806379695af71161024457806379695af7146107f0578063808d6d291461081057806382b465b71461083d578063892d5d941461085d57600080fd5b80636817c76c14610786578063715018a61461079c5780637215361e146107b15780637788a387146107d157600080fd5b806359cef85b116102b157806359cef85b146106e65780635c975abb14610706578063638b1b14146107255780636749b0ba1461074557600080fd5b80634c78106f1461063b578063536531311461066857806353a636dd14610691578063571a26a0146106b157600080fd5b806327cfc8a91161035a5780633ccfd60b116103295780633ccfd60b146105d157806342966c68146105e6578063439766ce146106065780634b42d6581461061b57600080fd5b806327cfc8a9146105555780632d69044f1461057557806333209e651461058857806338a4cb5b1461059b57600080fd5b80631459457a116103965780631459457a146104a857806317aa7f03146104c8578063194a9716146104e857806326a49e371461052857600080fd5b8063050225ea1461040b5780630c56ae3b1461042d5780630d6b33781461046a5780630d8e6e2c1461048a57600080fd5b3661040657604080513381523460208201527f88a5966d370b9919b20f3e2c13ff65706f196a4e32cc2c12bf57088f88525874910160405180910390a1005b600080fd5b34801561041757600080fd5b5061042b610426366004614acf565b610cf2565b005b34801561043957600080fd5b5060095461044d906001600160a01b031681565b6040516001600160a01b0390911681526020015b60405180910390f35b34801561047657600080fd5b5061042b610485366004614cf3565b610e87565b34801561049657600080fd5b5060015b604051908152602001610461565b3480156104b457600080fd5b5061042b6104c3366004614a5e565b610f06565b3480156104d457600080fd5b5061042b6104e3366004614cf3565b611143565b3480156104f457600080fd5b50610518610503366004614cf3565b6000908152600d602052604090205460ff1690565b6040519015158152602001610461565b34801561053457600080fd5b5061049a610543366004614cf3565b600b6020526000908152604090205481565b34801561056157600080fd5b5061049a610570366004614a24565b6111c2565b61042b610583366004614d25565b611216565b61042b610596366004614d9c565b61147b565b3480156105a757600080fd5b5061044d6105b6366004614cf3565b600f602052600090815260409020546001600160a01b031681565b3480156105dd57600080fd5b5061042b611b67565b3480156105f257600080fd5b5061042b610601366004614cf3565b611bc4565b34801561061257600080fd5b5061042b611c66565b34801561062757600080fd5b5061042b610636366004614acf565b611cee565b34801561064757600080fd5b5061049a610656366004614a24565b60166020526000908152604090205481565b34801561067457600080fd5b5061067e61038481565b60405161ffff9091168152602001610461565b34801561069d57600080fd5b506105186106ac366004614dec565b611dde565b3480156106bd57600080fd5b506106d16106cc366004614cf3565b611ec7565b604051610461999897969594939291906151ba565b3480156106f257600080fd5b5061042b610701366004614acf565b611fab565b34801561071257600080fd5b50600a54600160a81b900460ff16610518565b34801561073157600080fd5b50600a5461044d906001600160a01b031681565b34801561075157600080fd5b5061044d610760366004614c0d565b80516020818301810180516014825292820191909301209152546001600160a01b031681565b34801561079257600080fd5b5061049a60065481565b3480156107a857600080fd5b5061042b611ff1565b3480156107bd57600080fd5b5061042b6107cc366004614d25565b612027565b3480156107dd57600080fd5b50600a54600160a01b900460ff16610518565b3480156107fc57600080fd5b5061042b61080b366004614a24565b61228f565b34801561081c57600080fd5b5061083061082b366004614cf3565b6122ef565b6040516104619190614fa5565b34801561084957600080fd5b5061042b610858366004614afb565b612391565b34801561086957600080fd5b5061049a60035481565b34801561087f57600080fd5b506001546001600160a01b031661044d565b34801561089d57600080fd5b5061049a60045481565b3480156108b357600080fd5b5061044d6108c2366004614c0d565b80516020818301810180516012825292820191909301209152546001600160a01b031681565b3480156108f457600080fd5b5061042b610903366004614cf3565b6127a2565b34801561091457600080fd5b5061042b610923366004614cf3565b61284f565b34801561093457600080fd5b50610518610943366004614d6c565b612ae6565b34801561095457600080fd5b5061042b612c23565b61042b61096b366004614dec565b612c71565b34801561097c57600080fd5b5061044d61098b366004614cf3565b6011602052600090815260409020546001600160a01b031681565b3480156109b257600080fd5b5061042b6109c1366004614cf3565b6134ae565b3480156109d257600080fd5b5061049a6109e1366004614cf3565b60106020526000908152604090205481565b3480156109ff57600080fd5b50610518610a0e366004614a24565b6001600160a01b031660009081526015602052604090205460ff1690565b348015610a3857600080fd5b5061042b613654565b348015610a4d57600080fd5b5061049a610a5c366004614a24565b60176020526000908152604090205481565b348015610a7a57600080fd5b5061049a60055481565b348015610a9057600080fd5b5061042b610a9f366004614cf3565b6136d0565b348015610ab057600080fd5b5061042b610abf366004614c4a565b613e41565b348015610ad057600080fd5b5061042b610adf366004614e3c565b613ef3565b348015610af057600080fd5b50610518610aff366004614cf3565b600d6020526000908152604090205460ff1681565b348015610b2057600080fd5b50610b29600a81565b60405160ff9091168152602001610461565b348015610b4757600080fd5b5061049a610b56366004614cf3565b6000908152600b602052604090205490565b348015610b7457600080fd5b5061042b610b83366004614cae565b614124565b348015610b9457600080fd5b50610830610ba3366004614cf3565b6142e9565b348015610bb457600080fd5b5061049a610bc3366004614a24565b614383565b348015610bd457600080fd5b5060075461044d906001600160a01b031681565b348015610bf457600080fd5b5061049a610c03366004614cf3565b600c6020526000908152604090205481565b348015610c2157600080fd5b5061042b610c30366004614dec565b6143d7565b348015610c4157600080fd5b5061042b610c50366004614a24565b614506565b348015610c6157600080fd5b50610518610c70366004614cf3565b61459e565b348015610c8157600080fd5b5061049a610c90366004614cf3565b6000908152600c602052604090205490565b348015610cae57600080fd5b50610518610cbd366004614a24565b60156020526000908152604090205460ff1681565b348015610cde57600080fd5b5060085461044d906001600160a01b031681565b6000818152600d602052604090205460ff16610d73576007546040516323b872dd60e01b81526001600160a01b03909116906323b872dd90610d3c90339086908690600401614f81565b600060405180830381600087803b158015610d5657600080fd5b505af1158015610d6a573d6000803e3d6000fd5b50505050610e23565b6000818152601160205260409020546001600160a01b03163314610db25760405162461bcd60e51b8152600401610da990615061565b60405180910390fd5b6007546040516323b872dd60e01b81526001600160a01b03909116906323b872dd90610de690309086908690600401614f81565b600060405180830381600087803b158015610e0057600080fd5b505af1158015610e14573d6000803e3d6000fd5b505050600082905250600d6020525b60008181526011602090815260409182902080546001600160a01b0319166001600160a01b038616908117909155915183815233917f4abe537933cf6821c78fd52b40560aa40ad6f997168b53f9ea55a9b34420069b910160405180910390a35050565b6001546001600160a01b03163314610eb15760405162461bcd60e51b8152600401610da99061502c565b60018111610f015760405162461bcd60e51b815260206004820152601b60248201527f496e76616c6964204d61726b657446656520466f7220546f6b656e00000000006044820152606401610da9565b600455565b6000610f1260016145fc565b90508015610f2e576001805460ff60a81b1916600160a81b1790555b6040516301ffc9a760e01b81526380ac58cd60e01b60048201526001600160a01b038716906301ffc9a79060240160206040518083038186803b158015610f7457600080fd5b505afa158015610f88573d6000803e3d6000fd5b505050506040513d601f19601f82011682018060405250810190610fac9190614bf0565b61101e5760405162461bcd60e51b815260206004820152603f60248201527f436f6e7472616374206174206e6674436f6e74726163745f206164647265737360448201527f20646f6573206e6f7420737570706f7274204e465420696e74657266616365006064820152608401610da9565b600780546001600160a01b038089166001600160a01b0319928316179092556008805492881692909116919091179055604051849060149061106a906327a224a760e11b815260040190565b90815260405190819003602001812080546001600160a01b03939093166001600160a01b0319909316929092179091556327a224a760e11b8152839060129060040190815260405190819003602001902080546001600160a01b039283166001600160a01b0319909116179055600a80546001600160b01b03191691841691909117600160a01b179055801561113b576001805460ff60a81b191681556040519081527f7f26b83ff96e1f2b6a682f133852f6798a09c465da95921460cefb38474024989060200160405180910390a15b505050505050565b6001546001600160a01b0316331461116d5760405162461bcd60e51b8152600401610da99061502c565b600181116111bd5760405162461bcd60e51b815260206004820152601960248201527f496e76616c6964204d61726b657446656520466f7220424e42000000000000006044820152606401610da9565b600355565b6001600160a01b03811660009081526015602052604081205460ff166111fa5760405162461bcd60e51b8152600401610da990614fb8565b506001600160a01b031660009081526017602052604090205490565b6112486064611242670de0b6b3a764000061123c8660065461469790919063ffffffff16565b90614697565b906146aa565b3410156112975760405162461bcd60e51b815260206004820152601960248201527f4e6f206861766520656e6f7567682073756666696369656e74000000000000006044820152606401610da9565b60005b8281101561143c5760006112ad60025490565b6000818152600f602090815260408083208054336001600160a01b031991821681179092556011845282852080549091169091179055600d8252808320805460ff1916905560055460109092529091205560065490915061131d9060649061124290670de0b6b3a7640000614697565b6000828152600b602052604090205560075483516001600160a01b03909116906394bf804d908590859081106113555761135561537b565b6020026020010151336040518363ffffffff1660e01b815260040161138d9291909182526001600160a01b0316602082015260400190565b602060405180830381600087803b1580156113a757600080fd5b505af11580156113bb573d6000803e3d6000fd5b505050506040513d601f19601f820116820180604052508101906113df9190614d0c565b506113ee600280546001019055565b604080518281526000602082015233917f53ad8893610de0fa6656f026deb942f5cde3d84f4c68f80c8b376f70c1a0f389910160405180910390a250806114348161534a565b91505061129a565b506008546040516001600160a01b03909116903480156108fc02916000818181858888f19350505050158015611476573d6000803e3d6000fd5b505050565b6002600054141561149e5760405162461bcd60e51b8152600401610da990615144565b6002600055600a54600160a81b900460ff16156114cd5760405162461bcd60e51b8152600401610da990615118565b826114f6816000908152600e602052604090206005015461010090046001600160a01b03161590565b1561153b5760405162461bcd60e51b8152602060048201526015602482015274105d58dd1a5bdb88191bd95cdb89dd08195e1a5cdd605a1b6044820152606401610da9565b6000848152600e602052604090206002015484901580611562575061155f816146b6565b42105b6115a05760405162461bcd60e51b815260206004820152600f60248201526e105d58dd1a5bdb88195e1c1a5c9959608a1b6044820152606401610da9565b600083116115f05760405162461bcd60e51b815260206004820152601d60248201527f416d6f756e74206d7573742062652067726561746572207468616e20300000006044820152606401610da9565b6000858152600e60209081526040918290209151611612926004019101614ee5565b60405160208183030381529060405280519060200120846040516020016116399190614ec9565b604051602081830303815290604052805190602001201461169c5760405162461bcd60e51b815260206004820152601d60248201527f5061796d656e7454797065206973206e6f74206d69736d6174636865640000006044820152606401610da9565b6040516221272160e91b602082015260230160405160208183030381529060405280519060200120846040516020016116d59190614ec9565b604051602081830303815290604052805190602001201415611745573483146117405760405162461bcd60e51b815260206004820152601e60248201527f416d6f756e7420646f65736e277420657175616c206d73672e76616c756500006044820152606401610da9565b611827565b6012846040516117559190614ec9565b908152604051908190036020018120546370a0823160e01b82523360048301526001600160a01b0316906370a082319060240160206040518083038186803b1580156117a057600080fd5b505afa1580156117b4573d6000803e3d6000fd5b505050506040513d601f19601f820116820180604052508101906117d89190614d0c565b8310156118275760405162461bcd60e51b815260206004820152601a60248201527f496e73756666696369656e7420746f6b656e2062616c616e63650000000000006044820152606401610da9565b6000858152600e60205260409020546118a0576000858152600e602052604090206003015483101561189b5760405162461bcd60e51b815260206004820152601d60248201527f4d7573742062696420726573657276655072696365206f72206d6f72650000006044820152606401610da9565b611a8e565b6000858152600e60205260409020546118da906118c59060649061124290600a614697565b6000878152600e6020526040902054906146d4565b83101561194f5760405162461bcd60e51b815260206004820152603f60248201527f4d75737420626964206d6f7265207468616e206c61737420626964206279204d60448201527f494e5f4249445f494e4352454d454e545f50455243454e5420616d6f756e74006064820152608401610da9565b6040516221272160e91b602082015260230160405160208183030381529060405280519060200120846040516020016119889190614ec9565b6040516020818303038152906040528051906020012014156119d2576000858152600e60205260409020600681015490546119cc916001600160a01b0316906146e0565b50611a8e565b6012846040516119e29190614ec9565b9081526040805160209281900383018120546000898152600e909452919092206006810154905463a9059cbb60e01b84526001600160a01b0391821660048501526024840152169063a9059cbb90604401602060405180830381600087803b158015611a4d57600080fd5b505af1158015611a61573d6000803e3d6000fd5b505050506040513d601f19601f82011682018060405250810190611a859190614bf0565b611a8e57600080fd5b6000858152600e6020526040902083815560060180546001600160a01b03191633179055611abe426103846146d4565b611ac7866146b6565b1015611b1257611aeb611ad9866146b6565b611ae5426103846146d4565b90614743565b6000868152600e602052604081206001018054909190611b0c908490615273565b90915550505b60075460405186917f3bb6f40a8aeb5dda33c401527cd8f6bd335757d2b1ed2827f0321a090c66b82491611b53916001600160a01b03169033908890614f81565b60405180910390a250506001600055505050565b6001546001600160a01b03163314611b915760405162461bcd60e51b8152600401610da99061502c565b6040514790339082156108fc029083906000818181858888f19350505050158015611bc0573d6000803e3d6000fd5b5050565b600754604051630852cd8d60e31b8152600481018390526001600160a01b03909116906342966c6890602401600060405180830381600087803b158015611c0a57600080fd5b505af1158015611c1e573d6000803e3d6000fd5b505050600091825250600f6020908152604080832080546001600160a01b0319908116909155601083528184208490556011835281842080549091169055600b909152812055565b6008546001600160a01b031633148015611c895750600a54600160a01b900460ff165b611ca55760405162461bcd60e51b8152600401610da99061508e565b600a805460ff60a81b1916600160a81b1790556040513381527f62e78cea01bee320cd4e420270b5ea74000d11b0c9f74754ebdbfc544b05a258906020015b60405180910390a1565b6001546001600160a01b03163314611d185760405162461bcd60e51b8152600401610da99061502c565b60008111611d5c5760405162461bcd60e51b81526020600482015260116024820152701cd95d08189a59d9d95c88185b5bdd5b9d607a1b6044820152606401610da9565b6001546001600160a01b0383811691161415611dad5760405162461bcd60e51b815260206004820152601060248201526f31b0b73737ba1039b2ba1037bbb732b960811b6044820152606401610da9565b6001600160a01b039091166000908152601560209081526040808320805460ff191660011790556016909152902055565b6000838152600b602090815260408083205460119092528220546001600160a01b03163314611e4f5760405162461bcd60e51b815260206004820152601c60248201527f4572726f722c20796f7520617265206e6f7420746865206f776e6572000000006044820152606401610da9565b6000858152600b60209081526040808320879055601382529091208451611e78928601906147a1565b50604080518281526020810186905290810186905233907f8647dab5101cbe18afb171756e9753802f9d66725bf2346b079b8b1a275e01169060600160405180910390a2506001949350505050565b600e60205260009081526040902080546001820154600283015460038401546004850180549495939492939192611efd9061530f565b80601f0160208091040260200160405190810160405280929190818152602001828054611f299061530f565b8015611f765780601f10611f4b57610100808354040283529160200191611f76565b820191906000526020600020905b815481529060010190602001808311611f5957829003601f168201915b50505060058401546006850154600790950154939460ff8216946001600160a01b036101009093048316945090821692501689565b6001546001600160a01b03163314611fd55760405162461bcd60e51b8152600401610da99061502c565b6001600160a01b03909116600090815260176020526040902055565b6001546001600160a01b0316331461201b5760405162461bcd60e51b8152600401610da99061502c565b612025600061474f565b565b3360009081526015602052604090205460ff166120565760405162461bcd60e51b8152600401610da990614fb8565b600061206133614383565b9050600061206e336111c2565b905061207a81856146d4565b8210156120bf5760405162461bcd60e51b815260206004820152601360248201527243616e6e6f74206d696e7420616e796d6f726560681b6044820152606401610da9565b60005b848110156122645760006120d560025490565b6000818152600f602090815260408083208054336001600160a01b031991821681179092556011845282852080549091169091179055600d8252808320805460ff191690556005546010909252909120556006549091506121459060649061124290670de0b6b3a7640000614697565b6000828152600b602052604090205560075485516001600160a01b03909116906394bf804d9087908590811061217d5761217d61537b565b6020026020010151336040518363ffffffff1660e01b81526004016121b59291909182526001600160a01b0316602082015260400190565b602060405180830381600087803b1580156121cf57600080fd5b505af11580156121e3573d6000803e3d6000fd5b505050506040513d601f19601f820116820180604052508101906122079190614d0c565b50612216600280546001019055565b604080518281526000602082015233917f53ad8893610de0fa6656f026deb942f5cde3d84f4c68f80c8b376f70c1a0f389910160405180910390a2508061225c8161534a565b9150506120c2565b503360009081526017602052604081208054869290612284908490615273565b909155505050505050565b6001546001600160a01b031633146122b95760405162461bcd60e51b8152600401610da99061502c565b6001600160a01b03166000908152601560209081526040808320805460ff19169055601682528083208390556017909152812055565b600081815260136020526040902080546060919061230c9061530f565b80601f01602080910402602001604051908101604052809291908181526020018280546123389061530f565b80156123855780601f1061235a57610100808354040283529160200191612385565b820191906000526020600020905b81548152906001019060200180831161236857829003601f168201915b50505050509050919050565b6001546001600160a01b031633146123bb5760405162461bcd60e51b8152600401610da99061502c565b845186511461241d5760405162461bcd60e51b815260206004820152602860248201527f746f6b656e49447320616e642063726561746f727320617265206e6f74206d696044820152671cdb585d18da195960c21b6064820152608401610da9565b835186511461247e5760405162461bcd60e51b815260206004820152602760248201527f746f6b656e49447320616e64205f70726963657320617265206e6f74206d69736044820152661b585d18da195960ca1b6064820152608401610da9565b82518651146124df5760405162461bcd60e51b815260206004820152602760248201527f746f6b656e49447320616e64205f6f776e65727320617265206e6f74206d69736044820152661b585d18da195960ca1b6064820152608401610da9565b81518651146125435760405162461bcd60e51b815260206004820152602a60248201527f746f6b656e49447320616e64205f726f79616c7469657320617265206e6f74206044820152691b5a5cdb585d18da195960b21b6064820152608401610da9565b80518651146125a75760405162461bcd60e51b815260206004820152602a60248201527f746f6b656e49447320616e64205f6c69737465644d617020617265206e6f74206044820152691b5a5cdb585d18da195960b21b6064820152608401610da9565b60005b8651811015612799576125c1600280546001019055565b8581815181106125d3576125d361537b565b6020026020010151600f60008984815181106125f1576125f161537b565b6020026020010151815260200190815260200160002060006101000a8154816001600160a01b0302191690836001600160a01b0316021790555084818151811061263d5761263d61537b565b6020026020010151600b600089848151811061265b5761265b61537b565b60200260200101518152602001908152602001600020819055508381815181106126875761268761537b565b6020026020010151601160008984815181106126a5576126a561537b565b6020026020010151815260200190815260200160002060006101000a8154816001600160a01b0302191690836001600160a01b031602179055508281815181106126f1576126f161537b565b60200260200101516010600089848151811061270f5761270f61537b565b602002602001015181526020019081526020016000208190555081818151811061273b5761273b61537b565b6020026020010151600d60008984815181106127595761275961537b565b6020026020010151815260200190815260200160002060006101000a81548160ff02191690831515021790555080806127919061534a565b9150506125aa565b50505050505050565b6008546001600160a01b0316331480156127c55750600a54600160a01b900460ff165b6127e15760405162461bcd60e51b8152600401610da99061508e565b6007546008546040516323b872dd60e01b81526001600160a01b03928316926323b872dd9261281a923092909116908690600401614f81565b600060405180830381600087803b15801561283457600080fd5b505af1158015612848573d6000803e3d6000fd5b5050505050565b600260005414156128725760405162461bcd60e51b8152600401610da990615144565b6002600055806128a0816000908152600e602052604090206005015461010090046001600160a01b03161590565b156128e55760405162461bcd60e51b8152602060048201526015602482015274105d58dd1a5bdb88191bd95cdb89dd08195e1a5cdd605a1b6044820152606401610da9565b6000828152600e6020526040902060050154829061010090046001600160a01b031633146129255760405162461bcd60e51b8152600401610da9906150d3565b6000838152600e6020526040902054156129815760405162461bcd60e51b815260206004820152601760248201527f41756374696f6e20616c726561647920737461727465640000000000000000006044820152606401610da9565b6000838152600e60205260408120600581015482825560018201839055600282018390556003820183905561010090046001600160a01b0316916129c86004830182614825565b506005810180546001600160a81b03191690556006810180546001600160a01b0319908116909155600791820180549091169055546040516323b872dd60e01b81526001600160a01b03909116906323b872dd90612a2e90309085908990600401614f81565b600060405180830381600087803b158015612a4857600080fd5b505af1158015612a5c573d6000803e3d6000fd5b5050506000858152600d60209081526040808320805460ff19169055601182529182902080546001600160a01b0319166001600160a01b03868116918217909255600754845192168252918101919091528692507f31e46b3372adff8978a18a1c543a6b3a925ee693bdf7a7c54df36f30f87d290e910160405180910390a2505060016000555050565b6007546040516331a9108f60e11b8152600481018490526000916001600160a01b031690636352211e9060240160206040518083038186803b158015612b2b57600080fd5b505afa158015612b3f573d6000803e3d6000fd5b505050506040513d601f19601f82011682018060405250810190612b639190614a41565b6001600160a01b0316336001600160a01b031614612bc35760405162461bcd60e51b815260206004820152601c60248201527f4572726f722c20796f7520617265206e6f7420746865206f776e6572000000006044820152606401610da9565b6000838152600d6020908152604091829020805460ff191685151590811790915582518681529182015233917f3fd63d9ca8dc693a1b9911e664951294721009a4f6239c862d6719a160a1edfc910160405180910390a250600192915050565b6008546001600160a01b031633148015612c465750600a54600160a01b900460ff165b612c625760405162461bcd60e51b8152600401610da99061508e565b600a805460ff60a01b19169055565b6000838152600d602052604090205460ff16612ccf5760405162461bcd60e51b815260206004820152601960248201527f4974656d206e6f74206c69737465642063757272656e746c79000000000000006044820152606401610da9565b6007546040516331a9108f60e11b8152600481018590526001600160a01b0390911690636352211e9060240160206040518083038186803b158015612d1357600080fd5b505afa158015612d27573d6000803e3d6000fd5b505050506040513d601f19601f82011682018060405250810190612d4b9190614a41565b6001600160a01b0316336001600160a01b03161415612dac5760405162461bcd60e51b815260206004820152601860248201527f43616e206e6f7420627579207768617420796f75206f776e00000000000000006044820152606401610da9565b6000838152600c60205260409020548214612e095760405162461bcd60e51b815260206004820152601960248201527f4572726f722c207072696365206973206e6f74206d61746368000000000000006044820152606401610da9565b6000838152601360209081526040918290209151612e28929101614ee5565b6040516020818303038152906040528051906020012081604051602001612e4f9190614ec9565b6040516020818303038152906040528051906020012014612eb25760405162461bcd60e51b815260206004820181905260248201527f4572726f722c205061796d656e742054797065206973206e6f74206d617463686044820152606401610da9565b6000838152601160209081526040918290205491516001600160a01b0390921691612ee791016221272160e91b815260030190565b6040516020818303038152906040528051906020012082604051602001612f0e9190614ec9565b604051602081830303815290604052805190602001201415613039576000848152600c6020526040902054341015612f9b5760405162461bcd60e51b815260206004820152602a60248201527f6d73672e76616c75652073686f756c6420626520657175616c20746f2074686560448201526908189d5e505b5bdd5b9d60b21b6064820152608401610da9565b6003546000858152600c60205260408120549091612fc1916103e8916112429190614697565b6000868152600c602052604081205491925090612fde9083614743565b9050612fea83826146e0565b50600854613010906001600160a01b031661300b6007611242866005614697565b6146e0565b50600a54613031906001600160a01b031661300b6007611242866002614697565b5050506133b7565b6000848152600c60205260409081902054905160129061305a908590614ec9565b908152604051908190036020018120546370a0823160e01b82523360048301526001600160a01b0316906370a082319060240160206040518083038186803b1580156130a557600080fd5b505afa1580156130b9573d6000803e3d6000fd5b505050506040513d601f19601f820116820180604052508101906130dd9190614d0c565b10156131465760405162461bcd60e51b815260206004820152603260248201527f746f6b656e2062616c616e63652073686f756c642062652067726561746572206044820152711d1a185b881d1a1948189d5e505b5bdd5b9d60721b6064820152608401610da9565b6004546000858152600c6020526040812054909161316c916103e8916112429190614697565b6000868152600c6020526040812054919250906131899083614743565b905060128460405161319b9190614ec9565b908152604051908190036020018120546323b872dd60e01b82526001600160a01b0316906323b872dd906131d790339087908690600401614f81565b602060405180830381600087803b1580156131f157600080fd5b505af1158015613205573d6000803e3d6000fd5b505050506040513d601f19601f820116820180604052508101906132299190614bf0565b61323257600080fd5b6012846040516132429190614ec9565b908152604051908190036020019020546008546001600160a01b03918216916323b872dd9133911661327a600561123c8860076146aa565b6040518463ffffffff1660e01b815260040161329893929190614f81565b602060405180830381600087803b1580156132b257600080fd5b505af11580156132c6573d6000803e3d6000fd5b505050506040513d601f19601f820116820180604052508101906132ea9190614bf0565b6132f357600080fd5b6012846040516133039190614ec9565b90815260405190819003602001902054600a546001600160a01b03918216916323b872dd9133911661333b600261123c8860076146aa565b6040518463ffffffff1660e01b815260040161335993929190614f81565b602060405180830381600087803b15801561337357600080fd5b505af1158015613387573d6000803e3d6000fd5b505050506040513d601f19601f820116820180604052508101906133ab9190614bf0565b6133b457600080fd5b50505b6007546040516323b872dd60e01b81526001600160a01b03909116906323b872dd906133eb90309033908990600401614f81565b600060405180830381600087803b15801561340557600080fd5b505af1158015613419573d6000803e3d6000fd5b505050600085815260116020908152604080832080546001600160a01b03191633908117909155600d8352818420805460ff19169055600b8352818420889055600c83529281902087905580518781529182018890529192506001600160a01b038416917f46661dab58311a6838247afecbee792192b4f27fc8b3e7168c66bc55ec2e404e910160405180910390a350505050565b6000818152601160205260409020546001600160a01b031633146134e45760405162461bcd60e51b8152600401610da990615061565b6000818152600d602052604090205460ff1615156001146135385760405162461bcd60e51b815260206004820152600e60248201526d105b1c9958591e4818dbdb1cd95960921b6044820152606401610da9565b6007546040516323b872dd60e01b81526001600160a01b03909116906323b872dd9061356c90309033908690600401614f81565b600060405180830381600087803b15801561358657600080fd5b505af115801561359a573d6000803e3d6000fd5b5050506000828152600d60209081526040808320805460ff19169055600b825280832054600c835281842055600e90915290206005015461010090046001600160a01b03163314159050613651576000818152600e602052604081208181556001810182905560028101829055600381018290559061361c6004830182614825565b506005810180546001600160a81b03191690556006810180546001600160a01b03199081169091556007909101805490911690555b50565b6008546001600160a01b0316331480156136775750600a54600160a01b900460ff165b6136935760405162461bcd60e51b8152600401610da99061508e565b600a805460ff60a81b191690556040513381527f5db9ee0a495bf2e6ff9c91a7834c1ba4fdd244a5e8aa4e537bd38aeae4b073aa90602001611ce4565b600260005414156136f35760405162461bcd60e51b8152600401610da990615144565b6002600055600a54600160a81b900460ff16156137225760405162461bcd60e51b8152600401610da990615118565b6000818152600e602052604090206002015481901580159061374c5750613748816146b6565b4210155b6137985760405162461bcd60e51b815260206004820152601860248201527f41756374696f6e206861736e277420636f6d706c6574656400000000000000006044820152606401610da9565b6000828152600e6020526040902060050154829061010090046001600160a01b03163314806137e057506000818152600e60205260409020600601546001600160a01b031633145b6137fc5760405162461bcd60e51b8152600401610da9906150d3565b6000838152600e60205260408120600681015481546005830154600490930180546001600160a01b0393841695929461010090049093169261383d9061530f565b80601f01602080910402602001604051908101604052809291908181526020018280546138699061530f565b80156138b65780601f1061388b576101008083540402835291602001916138b6565b820191906000526020600020905b81548152906001019060200180831161389957829003601f168201915b50505060008a8152600e6020526040812081815560018101829055600281018290556003810182905593945091506138f390506004830182614825565b506005810180546001600160a81b03191690556006810180546001600160a01b03199081169091556007909101805490911690556001600160a01b0384166139c7576007546040516323b872dd60e01b81526001600160a01b03909116906323b872dd9061396990309086908c90600401614f81565b600060405180830381600087803b15801561398357600080fd5b505af1158015613997573d6000803e3d6000fd5b505050600088815260116020526040902080546001600160a01b0319166001600160a01b03851617905550613dab565b6007546040516323b872dd60e01b81526001600160a01b03909116906323b872dd906139fb90309088908c90600401614f81565b600060405180830381600087803b158015613a1557600080fd5b505af1158015613a29573d6000803e3d6000fd5b50505050604051602001613a46906221272160e91b815260030190565b6040516020818303038152906040528051906020012081604051602001613a6d9190614ec9565b604051602081830303815290604052805190602001201415613aff576000613aa66103e86112426003548761469790919063ffffffff16565b9050613ab68361300b8684614743565b50600854613ad7906001600160a01b031661300b6007611242856005614697565b50600a54613af8906001600160a01b031661300b6007611242856002614697565b5050613d83565b6000613b1c6103e86112426004548761469790919063ffffffff16565b9050601282604051613b2e9190614ec9565b908152604051908190036020019020546001600160a01b031663a9059cbb84613b578785614743565b6040516001600160e01b031960e085901b1681526001600160a01b0390921660048301526024820152604401602060405180830381600087803b158015613b9d57600080fd5b505af1158015613bb1573d6000803e3d6000fd5b505050506040513d601f19601f82011682018060405250810190613bd59190614bf0565b613bde57600080fd5b601282604051613bee9190614ec9565b908152604051908190036020019020546008546001600160a01b039182169163a9059cbb9116613c246007611242866005614697565b6040516001600160e01b031960e085901b1681526001600160a01b0390921660048301526024820152604401602060405180830381600087803b158015613c6a57600080fd5b505af1158015613c7e573d6000803e3d6000fd5b505050506040513d601f19601f82011682018060405250810190613ca29190614bf0565b613cab57600080fd5b600a546040516001600160a01b039091169063a9059cbb90601490613cd1908690614ec9565b908152604051908190036020019020546001600160a01b0316613cfa6007611242866002614697565b6040516001600160e01b031960e085901b1681526001600160a01b0390921660048301526024820152604401602060405180830381600087803b158015613d4057600080fd5b505af1158015613d54573d6000803e3d6000fd5b505050506040513d601f19601f82011682018060405250810190613d789190614bf0565b613d8157600080fd5b505b600087815260116020526040902080546001600160a01b0319166001600160a01b0386161790555b6000878152600d60209081526040808320805460ff19169055600754600f8352928190205481516001600160a01b03948516815286851693810193909352878416918301919091526060820186905291909116608082015287907f28e48213ce86ac133ca69274548aa4243a6e2433eee55213af64b46a2e719caf9060a0015b60405180910390a2505060016000555050505050565b6001546001600160a01b03163314613e6b5760405162461bcd60e51b8152600401610da99061502c565b81601284604051613e7c9190614ec9565b908152602001604051809103902060006101000a8154816001600160a01b0302191690836001600160a01b0316021790555080601484604051613ebf9190614ec9565b90815260405190819003602001902080546001600160a01b03929092166001600160a01b0319909216919091179055505050565b60026000541415613f165760405162461bcd60e51b8152600401610da990615144565b6002600055600a54600160a81b900460ff1615613f455760405162461bcd60e51b8152600401610da990615118565b84613f6e816000908152600e602052604090206005015461010090046001600160a01b03161590565b613fb35760405162461bcd60e51b815260206004820152601660248201527541756374696f6e20616c72656164792065786973747360501b6044820152606401610da9565b6001600160a01b038216613fc657600080fd5b600086815260116020526040902080546001600160a01b03191633179055613fef8685856143d7565b60408051610120810182526000808252602080830189815242848601818152606086018b8152608087018b8152603260a08901526001600160a01b03808c1660c08a015260e08901889052600854166101008901528e8752600e8652979095208651815592516001840155516002830155925160038201559351805192949261407e92600485019201906147a1565b5060a082015160058201805460c085015160ff9093166001600160a81b0319909116176101006001600160a01b0393841681029190911790915560e08401516006840180546001600160a01b031990811692851692909217905593015160079092018054909316911617905560405187907faf28756bc1e562d40cb95e5867314a58926ea413130138ca11b3b2d6db787c6190613e2b9084908a908a908a908a9061517b565b6001546001600160a01b0316331461414e5760405162461bcd60e51b8152600401610da99061502c565b60006012836040516141609190614ec9565b908152604051908190036020018120546370a0823160e01b82523060048301526001600160a01b0316906370a082319060240160206040518083038186803b1580156141ab57600080fd5b505afa1580156141bf573d6000803e3d6000fd5b505050506040513d601f19601f820116820180604052508101906141e39190614d0c565b9050808211156142445760405162461bcd60e51b815260206004820152602660248201527f496e73756666696369656e7420746f6b656e2062616c616e636520746f20776960448201526574686472617760d01b6064820152608401610da9565b6012836040516142549190614ec9565b9081526040519081900360200181205463a9059cbb60e01b8252336004830152602482018390526001600160a01b03169063a9059cbb90604401602060405180830381600087803b1580156142a857600080fd5b505af11580156142bc573d6000803e3d6000fd5b505050506040513d601f19601f820116820180604052508101906142e09190614bf0565b61147657600080fd5b601360205260009081526040902080546143029061530f565b80601f016020809104026020016040519081016040528092919081815260200182805461432e9061530f565b801561437b5780601f106143505761010080835404028352916020019161437b565b820191906000526020600020905b81548152906001019060200180831161435e57829003601f168201915b505050505081565b6001600160a01b03811660009081526015602052604081205460ff166143bb5760405162461bcd60e51b8152600401610da990614fb8565b506001600160a01b031660009081526016602052604090205490565b6000838152601160205260409020546001600160a01b0316331461440d5760405162461bcd60e51b8152600401610da990615061565b6000838152600d602052604090205460ff161561445d5760405162461bcd60e51b815260206004820152600e60248201526d105b1c9958591e481bdc195b995960921b6044820152606401610da9565b6007546040516323b872dd60e01b81526001600160a01b03909116906323b872dd9061449190339030908890600401614f81565b600060405180830381600087803b1580156144ab57600080fd5b505af11580156144bf573d6000803e3d6000fd5b5050506000848152600d60209081526040808320805460ff19166001179055600c8252808320869055601382529091208351614500935090918401906147a1565b50505050565b6001546001600160a01b031633146145305760405162461bcd60e51b8152600401610da99061502c565b6001600160a01b0381166145955760405162461bcd60e51b815260206004820152602660248201527f4f776e61626c653a206e6577206f776e657220697320746865207a65726f206160448201526564647265737360d01b6064820152608401610da9565b6136518161474f565b6008546000906001600160a01b0316331480156145c45750600a54600160a01b900460ff165b6145e05760405162461bcd60e51b8152600401610da99061508e565b6008546145f6906001600160a01b0316836146e0565b92915050565b600154600090600160a81b900460ff1615614647578160ff1660011480156146235750303b155b61463f5760405162461bcd60e51b8152600401610da990614fde565b506000919050565b60015460ff808416600160a01b90920416106146755760405162461bcd60e51b8152600401610da990614fde565b506001805460ff909216600160a01b0260ff60a01b1990921691909117815590565b60006146a382846152ad565b9392505050565b60006146a3828461528b565b6000818152600e6020526040812060018101546002909101546145f6915b60006146a38284615273565b600080836001600160a01b03168361753090604051600060405180830381858888f193505050503d8060008114614733576040519150601f19603f3d011682016040523d82523d6000602084013e614738565b606091505b509095945050505050565b60006146a382846152cc565b600180546001600160a01b038381166001600160a01b0319831681179093556040519116919082907f8be0079c531659141344cd1fd0a4f28419497f9722a3daafe3b4186f6b6457e090600090a35050565b8280546147ad9061530f565b90600052602060002090601f0160209004810192826147cf5760008555614815565b82601f106147e857805160ff1916838001178555614815565b82800160010185558215614815579182015b828111156148155782518255916020019190600101906147fa565b5061482192915061485b565b5090565b5080546148319061530f565b6000825580601f10614841575050565b601f01602090049060005260206000209081019061365191905b5b80821115614821576000815560010161485c565b600082601f83011261488157600080fd5b813560206148966148918361524f565b61521e565b80838252828201915082860187848660051b89010111156148b657600080fd5b60005b858110156148de5781356148cc816153a7565b845292840192908401906001016148b9565b5090979650505050505050565b600082601f8301126148fc57600080fd5b8135602061490c6148918361524f565b80838252828201915082860187848660051b890101111561492c57600080fd5b60005b858110156148de578135614942816153bc565b8452928401929084019060010161492f565b600082601f83011261496557600080fd5b813560206149756148918361524f565b80838252828201915082860187848660051b890101111561499557600080fd5b60005b858110156148de57813584529284019290840190600101614998565b600082601f8301126149c557600080fd5b813567ffffffffffffffff8111156149df576149df615391565b6149f2601f8201601f191660200161521e565b818152846020838601011115614a0757600080fd5b816020850160208301376000918101602001919091529392505050565b600060208284031215614a3657600080fd5b81356146a3816153a7565b600060208284031215614a5357600080fd5b81516146a3816153a7565b600080600080600060a08688031215614a7657600080fd5b8535614a81816153a7565b94506020860135614a91816153a7565b93506040860135614aa1816153a7565b92506060860135614ab1816153a7565b91506080860135614ac1816153a7565b809150509295509295909350565b60008060408385031215614ae257600080fd5b8235614aed816153a7565b946020939093013593505050565b60008060008060008060c08789031215614b1457600080fd5b863567ffffffffffffffff80821115614b2c57600080fd5b614b388a838b01614954565b97506020890135915080821115614b4e57600080fd5b614b5a8a838b01614870565b96506040890135915080821115614b7057600080fd5b614b7c8a838b01614954565b95506060890135915080821115614b9257600080fd5b614b9e8a838b01614870565b94506080890135915080821115614bb457600080fd5b614bc08a838b01614954565b935060a0890135915080821115614bd657600080fd5b50614be389828a016148eb565b9150509295509295509295565b600060208284031215614c0257600080fd5b81516146a3816153bc565b600060208284031215614c1f57600080fd5b813567ffffffffffffffff811115614c3657600080fd5b614c42848285016149b4565b949350505050565b600080600060608486031215614c5f57600080fd5b833567ffffffffffffffff811115614c7657600080fd5b614c82868287016149b4565b9350506020840135614c93816153a7565b91506040840135614ca3816153a7565b809150509250925092565b60008060408385031215614cc157600080fd5b823567ffffffffffffffff811115614cd857600080fd5b614ce4858286016149b4565b95602094909401359450505050565b600060208284031215614d0557600080fd5b5035919050565b600060208284031215614d1e57600080fd5b5051919050565b60008060408385031215614d3857600080fd5b82359150602083013567ffffffffffffffff811115614d5657600080fd5b614d6285828601614954565b9150509250929050565b60008060408385031215614d7f57600080fd5b823591506020830135614d91816153bc565b809150509250929050565b600080600060608486031215614db157600080fd5b83359250602084013567ffffffffffffffff811115614dcf57600080fd5b614ddb868287016149b4565b925050604084013590509250925092565b600080600060608486031215614e0157600080fd5b8335925060208401359150604084013567ffffffffffffffff811115614e2657600080fd5b614e32868287016149b4565b9150509250925092565b600080600080600060a08688031215614e5457600080fd5b853594506020860135935060408601359250606086013567ffffffffffffffff811115614e8057600080fd5b614e8c888289016149b4565b9250506080860135614ac1816153a7565b60008151808452614eb58160208601602086016152e3565b601f01601f19169290920160200192915050565b60008251614edb8184602087016152e3565b9190910192915050565b600080835481600182811c915080831680614f0157607f831692505b6020808410821415614f2157634e487b7160e01b86526022600452602486fd5b818015614f355760018114614f4657614f73565b60ff19861689528489019650614f73565b60008a81526020902060005b86811015614f6b5781548b820152908501908301614f52565b505084890196505b509498975050505050505050565b6001600160a01b039384168152919092166020820152604081019190915260600190565b6020815260006146a36020830184614e9d565b6020808252600c908201526b2737ba10383937b6b7ba32b960a11b604082015260600190565b6020808252602e908201527f496e697469616c697a61626c653a20636f6e747261637420697320616c72656160408201526d191e481a5b9a5d1a585b1a5e995960921b606082015260800190565b6020808252818101527f4f776e61626c653a2063616c6c6572206973206e6f7420746865206f776e6572604082015260600190565b60208082526013908201527239b2b73232b91034b9903737ba1037bbb732b960691b604082015260600190565b60208082526025908201527f43616c6c657220646f6573206e6f7420686176652061646d696e2070726976696040820152646c6567657360d81b606082015260800190565b60208082526025908201527f43616e206f6e6c792062652063616c6c65642062792061756374696f6e20437260408201526432b0ba37b960d91b606082015260800190565b60208082526012908201527110dbdb9d1c9858dd081a5cc81c185d5cd95960721b604082015260600190565b6020808252601f908201527f5265656e7472616e637947756172643a207265656e7472616e742063616c6c00604082015260600190565b85815284602082015283604082015260a0606082015260006151a060a0830185614e9d565b905060018060a01b03831660808301529695505050505050565b60006101208b83528a60208401528960408401528860608401528060808401526151e681840189614e9d565b60ff9790971660a084015250506001600160a01b0393841660c082015291831660e08301529091166101009091015295945050505050565b604051601f8201601f1916810167ffffffffffffffff8111828210171561524757615247615391565b604052919050565b600067ffffffffffffffff82111561526957615269615391565b5060051b60200190565b6000821982111561528657615286615365565b500190565b6000826152a857634e487b7160e01b600052601260045260246000fd5b500490565b60008160001904831182151516156152c7576152c7615365565b500290565b6000828210156152de576152de615365565b500390565b60005b838110156152fe5781810151838201526020016152e6565b838111156145005750506000910152565b600181811c9082168061532357607f821691505b6020821081141561534457634e487b7160e01b600052602260045260246000fd5b50919050565b600060001982141561535e5761535e615365565b5060010190565b634e487b7160e01b600052601160045260246000fd5b634e487b7160e01b600052603260045260246000fd5b634e487b7160e01b600052604160045260246000fd5b6001600160a01b038116811461365157600080fd5b801515811461365157600080fdfea2646970667358221220a1fd5a99723964d3a4d67f47c1f23f733ef2b5ecbebc496de02565c97ed77e4d64736f6c63430008070033",
  "linkReferences": {},
  "deployedLinkReferences": {}
}